{
  "_format": "hh-sol-artifact-1",
  "contractName": "NFT",
  "sourceName": "src/backend/contracts/NFT.sol",
  "abi": [
    {
      "inputs": [
        {
          "internalType": "address",
          "name": "recipient",
          "type": "address"
        }
      ],
      "stateMutability": "nonpayable",
      "type": "constructor"
    },
    {
      "anonymous": false,
      "inputs": [
        {
          "indexed": true,
          "internalType": "address",
          "name": "owner",
          "type": "address"
        },
        {
          "indexed": true,
          "internalType": "address",
          "name": "approved",
          "type": "address"
        },
        {
          "indexed": true,
          "internalType": "uint256",
          "name": "tokenId",
          "type": "uint256"
        }
      ],
      "name": "Approval",
      "type": "event"
    },
    {
      "anonymous": false,
      "inputs": [
        {
          "indexed": true,
          "internalType": "address",
          "name": "owner",
          "type": "address"
        },
        {
          "indexed": true,
          "internalType": "address",
          "name": "operator",
          "type": "address"
        },
        {
          "indexed": false,
          "internalType": "bool",
          "name": "approved",
          "type": "bool"
        }
      ],
      "name": "ApprovalForAll",
      "type": "event"
    },
    {
      "anonymous": false,
      "inputs": [
        {
          "indexed": true,
          "internalType": "address",
          "name": "previousOwner",
          "type": "address"
        },
        {
          "indexed": true,
          "internalType": "address",
          "name": "newOwner",
          "type": "address"
        }
      ],
      "name": "OwnershipTransferred",
      "type": "event"
    },
    {
      "anonymous": false,
      "inputs": [
        {
          "indexed": true,
          "internalType": "address",
          "name": "from",
          "type": "address"
        },
        {
          "indexed": true,
          "internalType": "address",
          "name": "to",
          "type": "address"
        },
        {
          "indexed": true,
          "internalType": "uint256",
          "name": "tokenId",
          "type": "uint256"
        }
      ],
      "name": "Transfer",
      "type": "event"
    },
    {
      "inputs": [
        {
          "internalType": "address",
          "name": "to",
          "type": "address"
        },
        {
          "internalType": "uint256",
          "name": "tokenId",
          "type": "uint256"
        }
      ],
      "name": "approve",
      "outputs": [],
      "stateMutability": "nonpayable",
      "type": "function"
    },
    {
      "inputs": [
        {
          "internalType": "address",
          "name": "owner",
          "type": "address"
        }
      ],
      "name": "balanceOf",
      "outputs": [
        {
          "internalType": "uint256",
          "name": "",
          "type": "uint256"
        }
      ],
      "stateMutability": "view",
      "type": "function"
    },
    {
      "inputs": [],
      "name": "baseTokenURI",
      "outputs": [
        {
          "internalType": "string",
          "name": "",
          "type": "string"
        }
      ],
      "stateMutability": "pure",
      "type": "function"
    },
    {
      "inputs": [],
      "name": "contractURI",
      "outputs": [
        {
          "internalType": "string",
          "name": "",
          "type": "string"
        }
      ],
      "stateMutability": "pure",
      "type": "function"
    },
    {
      "inputs": [
        {
          "internalType": "uint256",
          "name": "tokenId",
          "type": "uint256"
        }
      ],
      "name": "getApproved",
      "outputs": [
        {
          "internalType": "address",
          "name": "",
          "type": "address"
        }
      ],
      "stateMutability": "view",
      "type": "function"
    },
    {
      "inputs": [],
      "name": "getPrice",
      "outputs": [
        {
          "internalType": "uint256",
          "name": "",
          "type": "uint256"
        }
      ],
      "stateMutability": "view",
      "type": "function"
    },
    {
      "inputs": [
        {
          "internalType": "address",
          "name": "owner",
          "type": "address"
        },
        {
          "internalType": "address",
          "name": "operator",
          "type": "address"
        }
      ],
      "name": "isApprovedForAll",
      "outputs": [
        {
          "internalType": "bool",
          "name": "",
          "type": "bool"
        }
      ],
      "stateMutability": "view",
      "type": "function"
    },
    {
      "inputs": [
        {
          "internalType": "address",
          "name": "_user",
          "type": "address"
        }
      ],
      "name": "isWhitelisted",
      "outputs": [
        {
          "internalType": "bool",
          "name": "",
          "type": "bool"
        }
      ],
      "stateMutability": "view",
      "type": "function"
    },
    {
      "inputs": [],
      "name": "max_supply",
      "outputs": [
        {
          "internalType": "uint256",
          "name": "",
          "type": "uint256"
        }
      ],
      "stateMutability": "view",
      "type": "function"
    },
    {
      "inputs": [],
      "name": "mint",
      "outputs": [
        {
          "internalType": "uint256",
          "name": "",
          "type": "uint256"
        }
      ],
      "stateMutability": "payable",
      "type": "function"
    },
    {
      "inputs": [],
      "name": "name",
      "outputs": [
        {
          "internalType": "string",
          "name": "",
          "type": "string"
        }
      ],
      "stateMutability": "view",
      "type": "function"
    },
    {
      "inputs": [],
      "name": "owner",
      "outputs": [
        {
          "internalType": "address",
          "name": "",
          "type": "address"
        }
      ],
      "stateMutability": "view",
      "type": "function"
    },
    {
      "inputs": [
        {
          "internalType": "uint256",
          "name": "tokenId",
          "type": "uint256"
        }
      ],
      "name": "ownerOf",
      "outputs": [
        {
          "internalType": "address",
          "name": "",
          "type": "address"
        }
      ],
      "stateMutability": "view",
      "type": "function"
    },
    {
      "inputs": [],
      "name": "presale",
      "outputs": [
        {
          "internalType": "bool",
          "name": "",
          "type": "bool"
        }
      ],
      "stateMutability": "view",
      "type": "function"
    },
    {
      "inputs": [],
      "name": "renounceOwnership",
      "outputs": [],
      "stateMutability": "nonpayable",
      "type": "function"
    },
    {
      "inputs": [
        {
          "internalType": "uint256",
          "name": "_tokenId",
          "type": "uint256"
        },
        {
          "internalType": "uint256",
          "name": "_salePrice",
          "type": "uint256"
        }
      ],
      "name": "royaltyInfo",
      "outputs": [
        {
          "internalType": "address",
          "name": "receiver",
          "type": "address"
        },
        {
          "internalType": "uint256",
          "name": "royaltyAmount",
          "type": "uint256"
        }
      ],
      "stateMutability": "view",
      "type": "function"
    },
    {
      "inputs": [
        {
          "internalType": "address",
          "name": "from",
          "type": "address"
        },
        {
          "internalType": "address",
          "name": "to",
          "type": "address"
        },
        {
          "internalType": "uint256",
          "name": "tokenId",
          "type": "uint256"
        }
      ],
      "name": "safeTransferFrom",
      "outputs": [],
      "stateMutability": "nonpayable",
      "type": "function"
    },
    {
      "inputs": [
        {
          "internalType": "address",
          "name": "from",
          "type": "address"
        },
        {
          "internalType": "address",
          "name": "to",
          "type": "address"
        },
        {
          "internalType": "uint256",
          "name": "tokenId",
          "type": "uint256"
        },
        {
          "internalType": "bytes",
          "name": "_data",
          "type": "bytes"
        }
      ],
      "name": "safeTransferFrom",
      "outputs": [],
      "stateMutability": "nonpayable",
      "type": "function"
    },
    {
      "inputs": [
        {
          "internalType": "address",
          "name": "operator",
          "type": "address"
        },
        {
          "internalType": "bool",
          "name": "approved",
          "type": "bool"
        }
      ],
      "name": "setApprovalForAll",
      "outputs": [],
      "stateMutability": "nonpayable",
      "type": "function"
    },
    {
      "inputs": [
        {
          "internalType": "bool",
          "name": "_state",
          "type": "bool"
        }
      ],
      "name": "setPresaleEnabled",
      "outputs": [],
      "stateMutability": "nonpayable",
      "type": "function"
    },
    {
      "inputs": [
        {
          "internalType": "address",
          "name": "newRecipient",
          "type": "address"
        }
      ],
      "name": "setRoyalties",
      "outputs": [],
      "stateMutability": "nonpayable",
      "type": "function"
    },
    {
      "inputs": [
        {
          "internalType": "bool",
          "name": "_state",
          "type": "bool"
        }
      ],
      "name": "setWhitelistMintEnabled",
      "outputs": [],
      "stateMutability": "nonpayable",
      "type": "function"
    },
    {
      "inputs": [
        {
          "internalType": "bytes4",
          "name": "interfaceId",
          "type": "bytes4"
        }
      ],
      "name": "supportsInterface",
      "outputs": [
        {
          "internalType": "bool",
          "name": "",
          "type": "bool"
        }
      ],
      "stateMutability": "view",
      "type": "function"
    },
    {
      "inputs": [],
      "name": "symbol",
      "outputs": [
        {
          "internalType": "string",
          "name": "",
          "type": "string"
        }
      ],
      "stateMutability": "view",
      "type": "function"
    },
    {
      "inputs": [],
      "name": "tokenCount",
      "outputs": [
        {
          "internalType": "uint256",
          "name": "",
          "type": "uint256"
        }
      ],
      "stateMutability": "view",
      "type": "function"
    },
    {
      "inputs": [
        {
          "internalType": "uint256",
          "name": "_tokenId",
          "type": "uint256"
        }
      ],
      "name": "tokenURI",
      "outputs": [
        {
          "internalType": "string",
          "name": "",
          "type": "string"
        }
      ],
      "stateMutability": "view",
      "type": "function"
    },
    {
      "inputs": [],
      "name": "totalSupply",
      "outputs": [
        {
          "internalType": "uint256",
          "name": "",
          "type": "uint256"
        }
      ],
      "stateMutability": "view",
      "type": "function"
    },
    {
      "inputs": [
        {
          "internalType": "address",
          "name": "from",
          "type": "address"
        },
        {
          "internalType": "address",
          "name": "to",
          "type": "address"
        },
        {
          "internalType": "uint256",
          "name": "tokenId",
          "type": "uint256"
        }
      ],
      "name": "transferFrom",
      "outputs": [],
      "stateMutability": "nonpayable",
      "type": "function"
    },
    {
      "inputs": [
        {
          "internalType": "address",
          "name": "newOwner",
          "type": "address"
        }
      ],
      "name": "transferOwnership",
      "outputs": [],
      "stateMutability": "nonpayable",
      "type": "function"
    },
    {
      "inputs": [],
      "name": "uriPrefix",
      "outputs": [
        {
          "internalType": "string",
          "name": "",
          "type": "string"
        }
      ],
      "stateMutability": "view",
      "type": "function"
    },
    {
      "inputs": [],
      "name": "uriSuffix",
      "outputs": [
        {
          "internalType": "string",
          "name": "",
          "type": "string"
        }
      ],
      "stateMutability": "view",
      "type": "function"
    },
    {
      "inputs": [],
      "name": "whitelistMintEnabled",
      "outputs": [
        {
          "internalType": "bool",
          "name": "",
          "type": "bool"
        }
      ],
      "stateMutability": "view",
      "type": "function"
    },
    {
      "inputs": [
        {
          "internalType": "address[]",
          "name": "_users",
          "type": "address[]"
        }
      ],
      "name": "whitelistUsers",
      "outputs": [],
      "stateMutability": "nonpayable",
      "type": "function"
    },
    {
      "inputs": [
        {
          "internalType": "uint256",
          "name": "",
          "type": "uint256"
        }
      ],
      "name": "whitelistedAddresses",
      "outputs": [
        {
          "internalType": "address",
          "name": "",
          "type": "address"
        }
      ],
      "stateMutability": "view",
      "type": "function"
    }
  ],
  "bytecode": "0x608060405260405180602001604052806000815250600890805190602001906200002b92919062000377565b506040518060400160405280600581526020017f2e6a736f6e000000000000000000000000000000000000000000000000000000815250600990805190602001906200007992919062000377565b506001600c60146101000a81548160ff0219169083151502179055506001600c60156101000a81548160ff021916908315150217905550348015620000bd57600080fd5b506040516200440f3803806200440f8339818101604052810190620000e391906200043e565b6040518060400160405280600e81526020017f536b6f6f646c6520536b756c6c730000000000000000000000000000000000008152506040518060400160405280600381526020017f534b53000000000000000000000000000000000000000000000000000000000081525081600090805190602001906200016792919062000377565b5080600190805190602001906200018092919062000377565b505050620001a3620001976200027f60201b60201c565b6200028760201b60201c565b610fa0600b819055508073ffffffffffffffffffffffffffffffffffffffff168173ffffffffffffffffffffffffffffffffffffffff16146200023657620001f06200034d60201b60201c565b600c60006101000a81548173ffffffffffffffffffffffffffffffffffffffff021916908373ffffffffffffffffffffffffffffffffffffffff16021790555062000278565b80600c60006101000a81548173ffffffffffffffffffffffffffffffffffffffff021916908373ffffffffffffffffffffffffffffffffffffffff1602179055505b506200051d565b600033905090565b6000600760009054906101000a900473ffffffffffffffffffffffffffffffffffffffff16905081600760006101000a81548173ffffffffffffffffffffffffffffffffffffffff021916908373ffffffffffffffffffffffffffffffffffffffff1602179055508173ffffffffffffffffffffffffffffffffffffffff168173ffffffffffffffffffffffffffffffffffffffff167f8be0079c531659141344cd1fd0a4f28419497f9722a3daafe3b4186f6b6457e060405160405180910390a35050565b6000600760009054906101000a900473ffffffffffffffffffffffffffffffffffffffff16905090565b82805462000385906200049e565b90600052602060002090601f016020900481019282620003a95760008555620003f5565b82601f10620003c457805160ff1916838001178555620003f5565b82800160010185558215620003f5579182015b82811115620003f4578251825591602001919060010190620003d7565b5b50905062000404919062000408565b5090565b5b808211156200042357600081600090555060010162000409565b5090565b600081519050620004388162000503565b92915050565b6000602082840312156200045157600080fd5b6000620004618482850162000427565b91505092915050565b600062000477826200047e565b9050919050565b600073ffffffffffffffffffffffffffffffffffffffff82169050919050565b60006002820490506001821680620004b757607f821691505b60208210811415620004ce57620004cd620004d4565b5b50919050565b7f4e487b7100000000000000000000000000000000000000000000000000000000600052602260045260246000fd5b6200050e816200046a565b81146200051a57600080fd5b50565b613ee2806200052d6000396000f3fe6080604052600436106101f95760003560e01c80638a333b501161010d578063ba4e5c49116100a0578063e8a3d4851161006f578063e8a3d4851461073d578063e985e9c514610768578063edec5f27146107a5578063f2fde38b146107ce578063fdea8e0b146107f7576101f9565b8063ba4e5c491461066f578063c10225b8146106ac578063c87b56dd146106d5578063d547cfb714610712576101f9565b80639f181b5e116100dc5780639f181b5e146105c9578063a22cb465146105f4578063b767a0981461061d578063b88d4fde14610646576101f9565b80638a333b501461051d5780638da5cb5b1461054857806395d89b411461057357806398d5fdca1461059e576101f9565b80632a9e63c61161019057806362b99ad41161015f57806362b99ad4146104365780636352211e146104615780636caede3d1461049e57806370a08231146104c9578063715018a614610506576101f9565b80632a9e63c61461037c5780633af32abf146103a557806342842e0e146103e25780635503a0e81461040b576101f9565b80631249c58b116101cc5780631249c58b146102cc57806318160ddd146102ea57806323b872dd146103155780632a55205a1461033e576101f9565b806301ffc9a7146101fe57806306fdde031461023b578063081812fc14610266578063095ea7b3146102a3575b600080fd5b34801561020a57600080fd5b5061022560048036038101906102209190612bd2565b610822565b6040516102329190613155565b60405180910390f35b34801561024757600080fd5b50610250610904565b60405161025d9190613170565b60405180910390f35b34801561027257600080fd5b5061028d60048036038101906102889190612c24565b610996565b60405161029a91906130c5565b60405180910390f35b3480156102af57600080fd5b506102ca60048036038101906102c59190612b28565b610a1b565b005b6102d4610b33565b6040516102e19190613412565b60405180910390f35b3480156102f657600080fd5b506102ff610bc3565b60405161030c9190613412565b60405180910390f35b34801561032157600080fd5b5061033c60048036038101906103379190612a22565b610bcd565b005b34801561034a57600080fd5b5061036560048036038101906103609190612c4d565b610c2d565b60405161037392919061312c565b60405180910390f35b34801561038857600080fd5b506103a3600480360381019061039e91906129bd565b610c79565b005b3480156103b157600080fd5b506103cc60048036038101906103c791906129bd565b610d01565b6040516103d99190613155565b60405180910390f35b3480156103ee57600080fd5b5061040960048036038101906104049190612a22565b610dd6565b005b34801561041757600080fd5b50610420610df6565b60405161042d9190613170565b60405180910390f35b34801561044257600080fd5b5061044b610e84565b6040516104589190613170565b60405180910390f35b34801561046d57600080fd5b5061048860048036038101906104839190612c24565b610f12565b60405161049591906130c5565b60405180910390f35b3480156104aa57600080fd5b506104b3610fc4565b6040516104c09190613155565b60405180910390f35b3480156104d557600080fd5b506104f060048036038101906104eb91906129bd565b610fd7565b6040516104fd9190613412565b60405180910390f35b34801561051257600080fd5b5061051b61108f565b005b34801561052957600080fd5b50610532611117565b60405161053f9190613412565b60405180910390f35b34801561055457600080fd5b5061055d61111d565b60405161056a91906130c5565b60405180910390f35b34801561057f57600080fd5b50610588611147565b6040516105959190613170565b60405180910390f35b3480156105aa57600080fd5b506105b36111d9565b6040516105c09190613412565b60405180910390f35b3480156105d557600080fd5b506105de61128c565b6040516105eb9190613412565b60405180910390f35b34801561060057600080fd5b5061061b60048036038101906106169190612aec565b611292565b005b34801561062957600080fd5b50610644600480360381019061063f9190612ba9565b6112a8565b005b34801561065257600080fd5b5061066d60048036038101906106689190612a71565b611341565b005b34801561067b57600080fd5b5061069660048036038101906106919190612c24565b6113a3565b6040516106a391906130c5565b60405180910390f35b3480156106b857600080fd5b506106d360048036038101906106ce9190612ba9565b6113e2565b005b3480156106e157600080fd5b506106fc60048036038101906106f79190612c24565b61147b565b6040516107099190613170565b60405180910390f35b34801561071e57600080fd5b50610727611577565b6040516107349190613170565b60405180910390f35b34801561074957600080fd5b50610752611586565b60405161075f9190613170565b60405180910390f35b34801561077457600080fd5b5061078f600480360381019061078a91906129e6565b6115a6565b60405161079c9190613155565b60405180910390f35b3480156107b157600080fd5b506107cc60048036038101906107c79190612b64565b61163a565b005b3480156107da57600080fd5b506107f560048036038101906107f091906129bd565b6116da565b005b34801561080357600080fd5b5061080c6117d2565b6040516108199190613155565b60405180910390f35b60007fc87b56dd000000000000000000000000000000000000000000000000000000007bffffffffffffffffffffffffffffffffffffffffffffffffffffffff1916827bffffffffffffffffffffffffffffffffffffffffffffffffffffffff191614806108ed57507f2a55205a000000000000000000000000000000000000000000000000000000007bffffffffffffffffffffffffffffffffffffffffffffffffffffffff1916827bffffffffffffffffffffffffffffffffffffffffffffffffffffffff1916145b806108fd57506108fc826117e5565b5b9050919050565b606060008054610913906136a6565b80601f016020809104026020016040519081016040528092919081815260200182805461093f906136a6565b801561098c5780601f106109615761010080835404028352916020019161098c565b820191906000526020600020905b81548152906001019060200180831161096f57829003601f168201915b5050505050905090565b60006109a1826118c7565b6109e0576040517f08c379a00000000000000000000000000000000000000000000000000000000081526004016109d790613312565b60405180910390fd5b6004600083815260200190815260200160002060009054906101000a900473ffffffffffffffffffffffffffffffffffffffff169050919050565b6000610a2682610f12565b90508073ffffffffffffffffffffffffffffffffffffffff168373ffffffffffffffffffffffffffffffffffffffff161415610a97576040517f08c379a0000000000000000000000000000000000000000000000000000000008152600401610a8e90613372565b60405180910390fd5b8073ffffffffffffffffffffffffffffffffffffffff16610ab6611933565b73ffffffffffffffffffffffffffffffffffffffff161480610ae55750610ae481610adf611933565b6115a6565b5b610b24576040517f08c379a0000000000000000000000000000000000000000000000000000000008152600401610b1b90613272565b60405180910390fd5b610b2e838361193b565b505050565b6000610b3d6111d9565b341015610b7f576040517f08c379a0000000000000000000000000000000000000000000000000000000008152600401610b76906133d2565b60405180910390fd5b6001600a6000828254610b9291906134db565b92505081905550610ba533600a546119f4565b610bbb600a54610bb6600a5461147b565b611a12565b600a54905090565b6000600a54905090565b610bde610bd8611933565b82611a86565b610c1d576040517f08c379a0000000000000000000000000000000000000000000000000000000008152600401610c14906133b2565b60405180910390fd5b610c28838383611b64565b505050565b600080600c60009054906101000a900473ffffffffffffffffffffffffffffffffffffffff166127106101f485610c649190613562565b610c6e9190613531565b915091509250929050565b610c81611933565b73ffffffffffffffffffffffffffffffffffffffff16610c9f61111d565b73ffffffffffffffffffffffffffffffffffffffff1614610cf5576040517f08c379a0000000000000000000000000000000000000000000000000000000008152600401610cec90613332565b60405180910390fd5b610cfe81611dcb565b50565b600080600090505b600d80549050811015610dcb578273ffffffffffffffffffffffffffffffffffffffff16600d8281548110610d67577f4e487b7100000000000000000000000000000000000000000000000000000000600052603260045260246000fd5b9060005260206000200160009054906101000a900473ffffffffffffffffffffffffffffffffffffffff1673ffffffffffffffffffffffffffffffffffffffff161415610db8576001915050610dd1565b8080610dc390613709565b915050610d09565b50600090505b919050565b610df183838360405180602001604052806000815250611341565b505050565b60098054610e03906136a6565b80601f0160208091040260200160405190810160405280929190818152602001828054610e2f906136a6565b8015610e7c5780601f10610e5157610100808354040283529160200191610e7c565b820191906000526020600020905b815481529060010190602001808311610e5f57829003601f168201915b505050505081565b60088054610e91906136a6565b80601f0160208091040260200160405190810160405280929190818152602001828054610ebd906136a6565b8015610f0a5780601f10610edf57610100808354040283529160200191610f0a565b820191906000526020600020905b815481529060010190602001808311610eed57829003601f168201915b505050505081565b6000806002600084815260200190815260200160002060009054906101000a900473ffffffffffffffffffffffffffffffffffffffff169050600073ffffffffffffffffffffffffffffffffffffffff168173ffffffffffffffffffffffffffffffffffffffff161415610fbb576040517f08c379a0000000000000000000000000000000000000000000000000000000008152600401610fb2906132b2565b60405180910390fd5b80915050919050565b600c60159054906101000a900460ff1681565b60008073ffffffffffffffffffffffffffffffffffffffff168273ffffffffffffffffffffffffffffffffffffffff161415611048576040517f08c379a000000000000000000000000000000000000000000000000000000000815260040161103f90613292565b60405180910390fd5b600360008373ffffffffffffffffffffffffffffffffffffffff1673ffffffffffffffffffffffffffffffffffffffff168152602001908152602001600020549050919050565b611097611933565b73ffffffffffffffffffffffffffffffffffffffff166110b561111d565b73ffffffffffffffffffffffffffffffffffffffff161461110b576040517f08c379a000000000000000000000000000000000000000000000000000000000815260040161110290613332565b60405180910390fd5b6111156000611e7f565b565b600b5481565b6000600760009054906101000a900473ffffffffffffffffffffffffffffffffffffffff16905090565b606060018054611156906136a6565b80601f0160208091040260200160405190810160405280929190818152602001828054611182906136a6565b80156111cf5780601f106111a4576101008083540402835291602001916111cf565b820191906000526020600020905b8154815290600101906020018083116111b257829003601f168201915b5050505050905090565b60006111e361111d565b73ffffffffffffffffffffffffffffffffffffffff163373ffffffffffffffffffffffffffffffffffffffff16146112845760011515600c60159054906101000a900460ff16151514801561123d575061123c33610d01565b5b1561125157668e1bc9bf0400009050611289565b600c60149054906101000a900460ff16156112755766e35fa931a000009050611289565b66f8b0a10e4700009050611289565b600090505b90565b600a5481565b6112a461129d611933565b8383611f45565b5050565b6112b0611933565b73ffffffffffffffffffffffffffffffffffffffff166112ce61111d565b73ffffffffffffffffffffffffffffffffffffffff1614611324576040517f08c379a000000000000000000000000000000000000000000000000000000000815260040161131b90613332565b60405180910390fd5b80600c60156101000a81548160ff02191690831515021790555050565b61135261134c611933565b83611a86565b611391576040517f08c379a0000000000000000000000000000000000000000000000000000000008152600401611388906133b2565b60405180910390fd5b61139d848484846120b2565b50505050565b600d81815481106113b357600080fd5b906000526020600020016000915054906101000a900473ffffffffffffffffffffffffffffffffffffffff1681565b6113ea611933565b73ffffffffffffffffffffffffffffffffffffffff1661140861111d565b73ffffffffffffffffffffffffffffffffffffffff161461145e576040517f08c379a000000000000000000000000000000000000000000000000000000000815260040161145590613332565b60405180910390fd5b80600c60146101000a81548160ff02191690831515021790555050565b6060611486826118c7565b6114c5576040517f08c379a00000000000000000000000000000000000000000000000000000000081526004016114bc90613352565b60405180910390fd5b600182101580156114d85750600b548211155b611517576040517f08c379a000000000000000000000000000000000000000000000000000000000815260040161150e906133f2565b60405180910390fd5b600061152161210e565b90506000815111611541576040518060200160405280600081525061156f565b8061154b8461212e565b600960405160200161155f93929190613094565b6040516020818303038152906040525b915050919050565b606061158161210e565b905090565b6060604051806060016040528060368152602001613e4160369139905090565b6000600560008473ffffffffffffffffffffffffffffffffffffffff1673ffffffffffffffffffffffffffffffffffffffff16815260200190815260200160002060008373ffffffffffffffffffffffffffffffffffffffff1673ffffffffffffffffffffffffffffffffffffffff16815260200190815260200160002060009054906101000a900460ff16905092915050565b611642611933565b73ffffffffffffffffffffffffffffffffffffffff1661166061111d565b73ffffffffffffffffffffffffffffffffffffffff16146116b6576040517f08c379a00000000000000000000000000000000000000000000000000000000081526004016116ad90613332565b60405180910390fd5b600d60006116c4919061273e565b8181600d91906116d592919061275f565b505050565b6116e2611933565b73ffffffffffffffffffffffffffffffffffffffff1661170061111d565b73ffffffffffffffffffffffffffffffffffffffff1614611756576040517f08c379a000000000000000000000000000000000000000000000000000000000815260040161174d90613332565b60405180910390fd5b600073ffffffffffffffffffffffffffffffffffffffff168173ffffffffffffffffffffffffffffffffffffffff1614156117c6576040517f08c379a00000000000000000000000000000000000000000000000000000000081526004016117bd906131b2565b60405180910390fd5b6117cf81611e7f565b50565b600c60149054906101000a900460ff1681565b60007f80ac58cd000000000000000000000000000000000000000000000000000000007bffffffffffffffffffffffffffffffffffffffffffffffffffffffff1916827bffffffffffffffffffffffffffffffffffffffffffffffffffffffff191614806118b057507f5b5e139f000000000000000000000000000000000000000000000000000000007bffffffffffffffffffffffffffffffffffffffffffffffffffffffff1916827bffffffffffffffffffffffffffffffffffffffffffffffffffffffff1916145b806118c057506118bf826122db565b5b9050919050565b60008073ffffffffffffffffffffffffffffffffffffffff166002600084815260200190815260200160002060009054906101000a900473ffffffffffffffffffffffffffffffffffffffff1673ffffffffffffffffffffffffffffffffffffffff1614159050919050565b600033905090565b816004600083815260200190815260200160002060006101000a81548173ffffffffffffffffffffffffffffffffffffffff021916908373ffffffffffffffffffffffffffffffffffffffff160217905550808273ffffffffffffffffffffffffffffffffffffffff166119ae83610f12565b73ffffffffffffffffffffffffffffffffffffffff167f8c5be1e5ebec7d5bd14f71427d1e84f3dd0314c0f7b2291e5b200ac8c7c3b92560405160405180910390a45050565b611a0e828260405180602001604052806000815250612345565b5050565b611a1b826118c7565b611a5a576040517f08c379a0000000000000000000000000000000000000000000000000000000008152600401611a51906132d2565b60405180910390fd5b80600660008481526020019081526020016000209080519060200190611a819291906127ff565b505050565b6000611a91826118c7565b611ad0576040517f08c379a0000000000000000000000000000000000000000000000000000000008152600401611ac790613252565b60405180910390fd5b6000611adb83610f12565b90508073ffffffffffffffffffffffffffffffffffffffff168473ffffffffffffffffffffffffffffffffffffffff161480611b4a57508373ffffffffffffffffffffffffffffffffffffffff16611b3284610996565b73ffffffffffffffffffffffffffffffffffffffff16145b80611b5b5750611b5a81856115a6565b5b91505092915050565b8273ffffffffffffffffffffffffffffffffffffffff16611b8482610f12565b73ffffffffffffffffffffffffffffffffffffffff1614611bda576040517f08c379a0000000000000000000000000000000000000000000000000000000008152600401611bd1906131d2565b60405180910390fd5b600073ffffffffffffffffffffffffffffffffffffffff168273ffffffffffffffffffffffffffffffffffffffff161415611c4a576040517f08c379a0000000000000000000000000000000000000000000000000000000008152600401611c4190613212565b60405180910390fd5b611c558383836123a0565b611c6060008261193b565b6001600360008573ffffffffffffffffffffffffffffffffffffffff1673ffffffffffffffffffffffffffffffffffffffff1681526020019081526020016000206000828254611cb091906135bc565b925050819055506001600360008473ffffffffffffffffffffffffffffffffffffffff1673ffffffffffffffffffffffffffffffffffffffff1681526020019081526020016000206000828254611d0791906134db565b92505081905550816002600083815260200190815260200160002060006101000a81548173ffffffffffffffffffffffffffffffffffffffff021916908373ffffffffffffffffffffffffffffffffffffffff160217905550808273ffffffffffffffffffffffffffffffffffffffff168473ffffffffffffffffffffffffffffffffffffffff167fddf252ad1be2c89b69c2b068fc378daa952ba7f163c4a11628f55a4df523b3ef60405160405180910390a4611dc68383836123a5565b505050565b600073ffffffffffffffffffffffffffffffffffffffff168173ffffffffffffffffffffffffffffffffffffffff161415611e3b576040517f08c379a0000000000000000000000000000000000000000000000000000000008152600401611e3290613392565b60405180910390fd5b80600c60006101000a81548173ffffffffffffffffffffffffffffffffffffffff021916908373ffffffffffffffffffffffffffffffffffffffff16021790555050565b6000600760009054906101000a900473ffffffffffffffffffffffffffffffffffffffff16905081600760006101000a81548173ffffffffffffffffffffffffffffffffffffffff021916908373ffffffffffffffffffffffffffffffffffffffff1602179055508173ffffffffffffffffffffffffffffffffffffffff168173ffffffffffffffffffffffffffffffffffffffff167f8be0079c531659141344cd1fd0a4f28419497f9722a3daafe3b4186f6b6457e060405160405180910390a35050565b8173ffffffffffffffffffffffffffffffffffffffff168373ffffffffffffffffffffffffffffffffffffffff161415611fb4576040517f08c379a0000000000000000000000000000000000000000000000000000000008152600401611fab90613232565b60405180910390fd5b80600560008573ffffffffffffffffffffffffffffffffffffffff1673ffffffffffffffffffffffffffffffffffffffff16815260200190815260200160002060008473ffffffffffffffffffffffffffffffffffffffff1673ffffffffffffffffffffffffffffffffffffffff16815260200190815260200160002060006101000a81548160ff0219169083151502179055508173ffffffffffffffffffffffffffffffffffffffff168373ffffffffffffffffffffffffffffffffffffffff167f17307eab39ab6107e8899845ad3d59bd9653f200f220920489ca2b5937696c31836040516120a59190613155565b60405180910390a3505050565b6120bd848484611b64565b6120c9848484846123aa565b612108576040517f08c379a00000000000000000000000000000000000000000000000000000000081526004016120ff90613192565b60405180910390fd5b50505050565b6060604051806060016040528060368152602001613e7760369139905090565b60606000821415612176576040518060400160405280600181526020017f300000000000000000000000000000000000000000000000000000000000000081525090506122d6565b600082905060005b600082146121a857808061219190613709565b915050600a826121a19190613531565b915061217e565b60008167ffffffffffffffff8111156121ea577f4e487b7100000000000000000000000000000000000000000000000000000000600052604160045260246000fd5b6040519080825280601f01601f19166020018201604052801561221c5781602001600182028036833780820191505090505b5090505b600085146122cf5760018261223591906135bc565b9150600a856122449190613752565b603061225091906134db565b60f81b81838151811061228c577f4e487b7100000000000000000000000000000000000000000000000000000000600052603260045260246000fd5b60200101907effffffffffffffffffffffffffffffffffffffffffffffffffffffffffffff1916908160001a905350600a856122c89190613531565b9450612220565b8093505050505b919050565b60007f01ffc9a7000000000000000000000000000000000000000000000000000000007bffffffffffffffffffffffffffffffffffffffffffffffffffffffff1916827bffffffffffffffffffffffffffffffffffffffffffffffffffffffff1916149050919050565b61234f8383612541565b61235c60008484846123aa565b61239b576040517f08c379a000000000000000000000000000000000000000000000000000000000815260040161239290613192565b60405180910390fd5b505050565b505050565b505050565b60006123cb8473ffffffffffffffffffffffffffffffffffffffff1661271b565b15612534578373ffffffffffffffffffffffffffffffffffffffff1663150b7a026123f4611933565b8786866040518563ffffffff1660e01b815260040161241694939291906130e0565b602060405180830381600087803b15801561243057600080fd5b505af192505050801561246157506040513d601f19601f8201168201806040525081019061245e9190612bfb565b60015b6124e4573d8060008114612491576040519150601f19603f3d011682016040523d82523d6000602084013e612496565b606091505b506000815114156124dc576040517f08c379a00000000000000000000000000000000000000000000000000000000081526004016124d390613192565b60405180910390fd5b805181602001fd5b63150b7a0260e01b7bffffffffffffffffffffffffffffffffffffffffffffffffffffffff1916817bffffffffffffffffffffffffffffffffffffffffffffffffffffffff191614915050612539565b600190505b949350505050565b600073ffffffffffffffffffffffffffffffffffffffff168273ffffffffffffffffffffffffffffffffffffffff1614156125b1576040517f08c379a00000000000000000000000000000000000000000000000000000000081526004016125a8906132f2565b60405180910390fd5b6125ba816118c7565b156125fa576040517f08c379a00000000000000000000000000000000000000000000000000000000081526004016125f1906131f2565b60405180910390fd5b612606600083836123a0565b6001600360008473ffffffffffffffffffffffffffffffffffffffff1673ffffffffffffffffffffffffffffffffffffffff168152602001908152602001600020600082825461265691906134db565b92505081905550816002600083815260200190815260200160002060006101000a81548173ffffffffffffffffffffffffffffffffffffffff021916908373ffffffffffffffffffffffffffffffffffffffff160217905550808273ffffffffffffffffffffffffffffffffffffffff16600073ffffffffffffffffffffffffffffffffffffffff167fddf252ad1be2c89b69c2b068fc378daa952ba7f163c4a11628f55a4df523b3ef60405160405180910390a4612717600083836123a5565b5050565b6000808273ffffffffffffffffffffffffffffffffffffffff163b119050919050565b508054600082559060005260206000209081019061275c9190612885565b50565b8280548282559060005260206000209081019282156127ee579160200282015b828111156127ed57823573ffffffffffffffffffffffffffffffffffffffff168260006101000a81548173ffffffffffffffffffffffffffffffffffffffff021916908373ffffffffffffffffffffffffffffffffffffffff1602179055509160200191906001019061277f565b5b5090506127fb9190612885565b5090565b82805461280b906136a6565b90600052602060002090601f01602090048101928261282d5760008555612874565b82601f1061284657805160ff1916838001178555612874565b82800160010185558215612874579182015b82811115612873578251825591602001919060010190612858565b5b5090506128819190612885565b5090565b5b8082111561289e576000816000905550600101612886565b5090565b60006128b56128b084613452565b61342d565b9050828152602081018484840111156128cd57600080fd5b6128d8848285613664565b509392505050565b6000813590506128ef81613de4565b92915050565b60008083601f84011261290757600080fd5b8235905067ffffffffffffffff81111561292057600080fd5b60208301915083602082028301111561293857600080fd5b9250929050565b60008135905061294e81613dfb565b92915050565b60008135905061296381613e12565b92915050565b60008151905061297881613e12565b92915050565b600082601f83011261298f57600080fd5b813561299f8482602086016128a2565b91505092915050565b6000813590506129b781613e29565b92915050565b6000602082840312156129cf57600080fd5b60006129dd848285016128e0565b91505092915050565b600080604083850312156129f957600080fd5b6000612a07858286016128e0565b9250506020612a18858286016128e0565b9150509250929050565b600080600060608486031215612a3757600080fd5b6000612a45868287016128e0565b9350506020612a56868287016128e0565b9250506040612a67868287016129a8565b9150509250925092565b60008060008060808587031215612a8757600080fd5b6000612a95878288016128e0565b9450506020612aa6878288016128e0565b9350506040612ab7878288016129a8565b925050606085013567ffffffffffffffff811115612ad457600080fd5b612ae08782880161297e565b91505092959194509250565b60008060408385031215612aff57600080fd5b6000612b0d858286016128e0565b9250506020612b1e8582860161293f565b9150509250929050565b60008060408385031215612b3b57600080fd5b6000612b49858286016128e0565b9250506020612b5a858286016129a8565b9150509250929050565b60008060208385031215612b7757600080fd5b600083013567ffffffffffffffff811115612b9157600080fd5b612b9d858286016128f5565b92509250509250929050565b600060208284031215612bbb57600080fd5b6000612bc98482850161293f565b91505092915050565b600060208284031215612be457600080fd5b6000612bf284828501612954565b91505092915050565b600060208284031215612c0d57600080fd5b6000612c1b84828501612969565b91505092915050565b600060208284031215612c3657600080fd5b6000612c44848285016129a8565b91505092915050565b60008060408385031215612c6057600080fd5b6000612c6e858286016129a8565b9250506020612c7f858286016129a8565b9150509250929050565b612c92816135f0565b82525050565b612ca181613602565b82525050565b6000612cb282613498565b612cbc81856134ae565b9350612ccc818560208601613673565b612cd58161383f565b840191505092915050565b6000612ceb826134a3565b612cf581856134bf565b9350612d05818560208601613673565b612d0e8161383f565b840191505092915050565b6000612d24826134a3565b612d2e81856134d0565b9350612d3e818560208601613673565b80840191505092915050565b60008154612d57816136a6565b612d6181866134d0565b94506001821660008114612d7c5760018114612d8d57612dc0565b60ff19831686528186019350612dc0565b612d9685613483565b60005b83811015612db857815481890152600182019150602081019050612d99565b838801955050505b50505092915050565b6000612dd66032836134bf565b9150612de182613850565b604082019050919050565b6000612df96026836134bf565b9150612e048261389f565b604082019050919050565b6000612e1c6025836134bf565b9150612e27826138ee565b604082019050919050565b6000612e3f601c836134bf565b9150612e4a8261393d565b602082019050919050565b6000612e626024836134bf565b9150612e6d82613966565b604082019050919050565b6000612e856019836134bf565b9150612e90826139b5565b602082019050919050565b6000612ea8602c836134bf565b9150612eb3826139de565b604082019050919050565b6000612ecb6038836134bf565b9150612ed682613a2d565b604082019050919050565b6000612eee602a836134bf565b9150612ef982613a7c565b604082019050919050565b6000612f116029836134bf565b9150612f1c82613acb565b604082019050919050565b6000612f34602e836134bf565b9150612f3f82613b1a565b604082019050919050565b6000612f576020836134bf565b9150612f6282613b69565b602082019050919050565b6000612f7a602c836134bf565b9150612f8582613b92565b604082019050919050565b6000612f9d6020836134bf565b9150612fa882613be1565b602082019050919050565b6000612fc0602f836134bf565b9150612fcb82613c0a565b604082019050919050565b6000612fe36021836134bf565b9150612fee82613c59565b604082019050919050565b6000613006602c836134bf565b915061301182613ca8565b604082019050919050565b60006130296031836134bf565b915061303482613cf7565b604082019050919050565b600061304c6021836134bf565b915061305782613d46565b604082019050919050565b600061306f6029836134bf565b915061307a82613d95565b604082019050919050565b61308e8161365a565b82525050565b60006130a08286612d19565b91506130ac8285612d19565b91506130b88284612d4a565b9150819050949350505050565b60006020820190506130da6000830184612c89565b92915050565b60006080820190506130f56000830187612c89565b6131026020830186612c89565b61310f6040830185613085565b81810360608301526131218184612ca7565b905095945050505050565b60006040820190506131416000830185612c89565b61314e6020830184613085565b9392505050565b600060208201905061316a6000830184612c98565b92915050565b6000602082019050818103600083015261318a8184612ce0565b905092915050565b600060208201905081810360008301526131ab81612dc9565b9050919050565b600060208201905081810360008301526131cb81612dec565b9050919050565b600060208201905081810360008301526131eb81612e0f565b9050919050565b6000602082019050818103600083015261320b81612e32565b9050919050565b6000602082019050818103600083015261322b81612e55565b9050919050565b6000602082019050818103600083015261324b81612e78565b9050919050565b6000602082019050818103600083015261326b81612e9b565b9050919050565b6000602082019050818103600083015261328b81612ebe565b9050919050565b600060208201905081810360008301526132ab81612ee1565b9050919050565b600060208201905081810360008301526132cb81612f04565b9050919050565b600060208201905081810360008301526132eb81612f27565b9050919050565b6000602082019050818103600083015261330b81612f4a565b9050919050565b6000602082019050818103600083015261332b81612f6d565b9050919050565b6000602082019050818103600083015261334b81612f90565b9050919050565b6000602082019050818103600083015261336b81612fb3565b9050919050565b6000602082019050818103600083015261338b81612fd6565b9050919050565b600060208201905081810360008301526133ab81612ff9565b9050919050565b600060208201905081810360008301526133cb8161301c565b9050919050565b600060208201905081810360008301526133eb8161303f565b9050919050565b6000602082019050818103600083015261340b81613062565b9050919050565b60006020820190506134276000830184613085565b92915050565b6000613437613448565b905061344382826136d8565b919050565b6000604051905090565b600067ffffffffffffffff82111561346d5761346c613810565b5b6134768261383f565b9050602081019050919050565b60008190508160005260206000209050919050565b600081519050919050565b600081519050919050565b600082825260208201905092915050565b600082825260208201905092915050565b600081905092915050565b60006134e68261365a565b91506134f18361365a565b9250827fffffffffffffffffffffffffffffffffffffffffffffffffffffffffffffffff0382111561352657613525613783565b5b828201905092915050565b600061353c8261365a565b91506135478361365a565b925082613557576135566137b2565b5b828204905092915050565b600061356d8261365a565b91506135788361365a565b9250817fffffffffffffffffffffffffffffffffffffffffffffffffffffffffffffffff04831182151516156135b1576135b0613783565b5b828202905092915050565b60006135c78261365a565b91506135d28361365a565b9250828210156135e5576135e4613783565b5b828203905092915050565b60006135fb8261363a565b9050919050565b60008115159050919050565b60007fffffffff0000000000000000000000000000000000000000000000000000000082169050919050565b600073ffffffffffffffffffffffffffffffffffffffff82169050919050565b6000819050919050565b82818337600083830152505050565b60005b83811015613691578082015181840152602081019050613676565b838111156136a0576000848401525b50505050565b600060028204905060018216806136be57607f821691505b602082108114156136d2576136d16137e1565b5b50919050565b6136e18261383f565b810181811067ffffffffffffffff82111715613700576136ff613810565b5b80604052505050565b60006137148261365a565b91507fffffffffffffffffffffffffffffffffffffffffffffffffffffffffffffffff82141561374757613746613783565b5b600182019050919050565b600061375d8261365a565b91506137688361365a565b925082613778576137776137b2565b5b828206905092915050565b7f4e487b7100000000000000000000000000000000000000000000000000000000600052601160045260246000fd5b7f4e487b7100000000000000000000000000000000000000000000000000000000600052601260045260246000fd5b7f4e487b7100000000000000000000000000000000000000000000000000000000600052602260045260246000fd5b7f4e487b7100000000000000000000000000000000000000000000000000000000600052604160045260246000fd5b6000601f19601f8301169050919050565b7f4552433732313a207472616e7366657220746f206e6f6e20455243373231526560008201527f63656976657220696d706c656d656e7465720000000000000000000000000000602082015250565b7f4f776e61626c653a206e6577206f776e657220697320746865207a65726f206160008201527f6464726573730000000000000000000000000000000000000000000000000000602082015250565b7f4552433732313a207472616e736665722066726f6d20696e636f72726563742060008201527f6f776e6572000000000000000000000000000000000000000000000000000000602082015250565b7f4552433732313a20746f6b656e20616c7265616479206d696e74656400000000600082015250565b7f4552433732313a207472616e7366657220746f20746865207a65726f2061646460008201527f7265737300000000000000000000000000000000000000000000000000000000602082015250565b7f4552433732313a20617070726f766520746f2063616c6c657200000000000000600082015250565b7f4552433732313a206f70657261746f7220717565727920666f72206e6f6e657860008201527f697374656e7420746f6b656e0000000000000000000000000000000000000000602082015250565b7f4552433732313a20617070726f76652063616c6c6572206973206e6f74206f7760008201527f6e6572206e6f7220617070726f76656420666f7220616c6c0000000000000000602082015250565b7f4552433732313a2062616c616e636520717565727920666f7220746865207a6560008201527f726f206164647265737300000000000000000000000000000000000000000000602082015250565b7f4552433732313a206f776e657220717565727920666f72206e6f6e657869737460008201527f656e7420746f6b656e0000000000000000000000000000000000000000000000602082015250565b7f45524337323155524953746f726167653a2055524920736574206f66206e6f6e60008201527f6578697374656e7420746f6b656e000000000000000000000000000000000000602082015250565b7f4552433732313a206d696e7420746f20746865207a65726f2061646472657373600082015250565b7f4552433732313a20617070726f76656420717565727920666f72206e6f6e657860008201527f697374656e7420746f6b656e0000000000000000000000000000000000000000602082015250565b7f4f776e61626c653a2063616c6c6572206973206e6f7420746865206f776e6572600082015250565b7f4552433732314d657461646174613a2055524920717565727920666f72206e6f60008201527f6e6578697374656e7420746f6b656e0000000000000000000000000000000000602082015250565b7f4552433732313a20617070726f76616c20746f2063757272656e74206f776e6560008201527f7200000000000000000000000000000000000000000000000000000000000000602082015250565b7f526f79616c746965733a206e657720726563697069656e74206973207468652060008201527f7a65726f20616464726573730000000000000000000000000000000000000000602082015250565b7f4552433732313a207472616e736665722063616c6c6572206973206e6f74206f60008201527f776e6572206e6f7220617070726f766564000000000000000000000000000000602082015250565b7f4e6f7420656e6f756768204554482073656e743b20636865636b20707269636560008201527f2100000000000000000000000000000000000000000000000000000000000000602082015250565b7f4d657461646174613a2055524920717565727920666f72206e6f6e657869737460008201527f656e7420746f6b656e0000000000000000000000000000000000000000000000602082015250565b613ded816135f0565b8114613df857600080fd5b50565b613e0481613602565b8114613e0f57600080fd5b50565b613e1b8161360e565b8114613e2657600080fd5b50565b613e328161365a565b8114613e3d57600080fd5b5056fe697066733a2f2f516d52515a4668594246586d43574e7161566374514c5954637a76506e597779577156547450714235527741704e2f697066733a2f2f516d4e6d424856484d4874386b765432567450446a5a36736a476a796a4a354c4273723144686e4c767a545a73732fa264697066735822122073f6ccac6006b16e30c3951c8b1b817d8601a27c9ebdefc5ecdcbc779c93979a64736f6c63430008040033",
  "linkReferences": {},
  "deployedLinkReferences": {}
}