{
  "_format": "hh-sol-artifact-1",
  "contractName": "NFT",
  "sourceName": "src/backend/contracts/NFT.sol",
  "abi": [
    {
      "inputs": [],
      "stateMutability": "nonpayable",
      "type": "constructor"
    },
    {
      "anonymous": false,
      "inputs": [
        {
          "indexed": true,
          "internalType": "address",
          "name": "owner",
          "type": "address"
        },
        {
          "indexed": true,
          "internalType": "address",
          "name": "approved",
          "type": "address"
        },
        {
          "indexed": true,
          "internalType": "uint256",
          "name": "tokenId",
          "type": "uint256"
        }
      ],
      "name": "Approval",
      "type": "event"
    },
    {
      "anonymous": false,
      "inputs": [
        {
          "indexed": true,
          "internalType": "address",
          "name": "owner",
          "type": "address"
        },
        {
          "indexed": true,
          "internalType": "address",
          "name": "operator",
          "type": "address"
        },
        {
          "indexed": false,
          "internalType": "bool",
          "name": "approved",
          "type": "bool"
        }
      ],
      "name": "ApprovalForAll",
      "type": "event"
    },
    {
      "anonymous": false,
      "inputs": [
        {
          "indexed": true,
          "internalType": "address",
          "name": "from",
          "type": "address"
        },
        {
          "indexed": true,
          "internalType": "address",
          "name": "to",
          "type": "address"
        },
        {
          "indexed": true,
          "internalType": "uint256",
          "name": "tokenId",
          "type": "uint256"
        }
      ],
      "name": "Transfer",
      "type": "event"
    },
    {
      "inputs": [
        {
          "internalType": "address",
          "name": "to",
          "type": "address"
        },
        {
          "internalType": "uint256",
          "name": "tokenId",
          "type": "uint256"
        }
      ],
      "name": "approve",
      "outputs": [],
      "stateMutability": "nonpayable",
      "type": "function"
    },
    {
      "inputs": [
        {
          "internalType": "address",
          "name": "owner",
          "type": "address"
        }
      ],
      "name": "balanceOf",
      "outputs": [
        {
          "internalType": "uint256",
          "name": "",
          "type": "uint256"
        }
      ],
      "stateMutability": "view",
      "type": "function"
    },
    {
      "inputs": [
        {
          "internalType": "uint256",
          "name": "tokenId",
          "type": "uint256"
        }
      ],
      "name": "getApproved",
      "outputs": [
        {
          "internalType": "address",
          "name": "",
          "type": "address"
        }
      ],
      "stateMutability": "view",
      "type": "function"
    },
    {
      "inputs": [
        {
          "internalType": "address",
          "name": "owner",
          "type": "address"
        },
        {
          "internalType": "address",
          "name": "operator",
          "type": "address"
        }
      ],
      "name": "isApprovedForAll",
      "outputs": [
        {
          "internalType": "bool",
          "name": "",
          "type": "bool"
        }
      ],
      "stateMutability": "view",
      "type": "function"
    },
    {
      "inputs": [],
      "name": "mint",
      "outputs": [
        {
          "internalType": "uint256",
          "name": "",
          "type": "uint256"
        }
      ],
      "stateMutability": "nonpayable",
      "type": "function"
    },
    {
      "inputs": [],
      "name": "name",
      "outputs": [
        {
          "internalType": "string",
          "name": "",
          "type": "string"
        }
      ],
      "stateMutability": "view",
      "type": "function"
    },
    {
      "inputs": [
        {
          "internalType": "uint256",
          "name": "tokenId",
          "type": "uint256"
        }
      ],
      "name": "ownerOf",
      "outputs": [
        {
          "internalType": "address",
          "name": "",
          "type": "address"
        }
      ],
      "stateMutability": "view",
      "type": "function"
    },
    {
      "inputs": [
        {
          "internalType": "address",
          "name": "from",
          "type": "address"
        },
        {
          "internalType": "address",
          "name": "to",
          "type": "address"
        },
        {
          "internalType": "uint256",
          "name": "tokenId",
          "type": "uint256"
        }
      ],
      "name": "safeTransferFrom",
      "outputs": [],
      "stateMutability": "nonpayable",
      "type": "function"
    },
    {
      "inputs": [
        {
          "internalType": "address",
          "name": "from",
          "type": "address"
        },
        {
          "internalType": "address",
          "name": "to",
          "type": "address"
        },
        {
          "internalType": "uint256",
          "name": "tokenId",
          "type": "uint256"
        },
        {
          "internalType": "bytes",
          "name": "_data",
          "type": "bytes"
        }
      ],
      "name": "safeTransferFrom",
      "outputs": [],
      "stateMutability": "nonpayable",
      "type": "function"
    },
    {
      "inputs": [
        {
          "internalType": "address",
          "name": "operator",
          "type": "address"
        },
        {
          "internalType": "bool",
          "name": "approved",
          "type": "bool"
        }
      ],
      "name": "setApprovalForAll",
      "outputs": [],
      "stateMutability": "nonpayable",
      "type": "function"
    },
    {
      "inputs": [
        {
          "internalType": "bytes4",
          "name": "interfaceId",
          "type": "bytes4"
        }
      ],
      "name": "supportsInterface",
      "outputs": [
        {
          "internalType": "bool",
          "name": "",
          "type": "bool"
        }
      ],
      "stateMutability": "view",
      "type": "function"
    },
    {
      "inputs": [],
      "name": "symbol",
      "outputs": [
        {
          "internalType": "string",
          "name": "",
          "type": "string"
        }
      ],
      "stateMutability": "view",
      "type": "function"
    },
    {
      "inputs": [],
      "name": "tokenCount",
      "outputs": [
        {
          "internalType": "uint256",
          "name": "",
          "type": "uint256"
        }
      ],
      "stateMutability": "view",
      "type": "function"
    },
    {
      "inputs": [
        {
          "internalType": "uint256",
          "name": "_tokenId",
          "type": "uint256"
        }
      ],
      "name": "tokenURI",
      "outputs": [
        {
          "internalType": "string",
          "name": "",
          "type": "string"
        }
      ],
      "stateMutability": "view",
      "type": "function"
    },
    {
      "inputs": [
        {
          "internalType": "address",
          "name": "from",
          "type": "address"
        },
        {
          "internalType": "address",
          "name": "to",
          "type": "address"
        },
        {
          "internalType": "uint256",
          "name": "tokenId",
          "type": "uint256"
        }
      ],
      "name": "transferFrom",
      "outputs": [],
      "stateMutability": "nonpayable",
      "type": "function"
    },
    {
      "inputs": [],
      "name": "uriPrefix",
      "outputs": [
        {
          "internalType": "string",
          "name": "",
          "type": "string"
        }
      ],
      "stateMutability": "view",
      "type": "function"
    },
    {
      "inputs": [],
      "name": "uriSuffix",
      "outputs": [
        {
          "internalType": "string",
          "name": "",
          "type": "string"
        }
      ],
      "stateMutability": "view",
      "type": "function"
    }
  ],
  "bytecode": "0x608060405260405180602001604052806000815250600790805190602001906200002b9291906200012e565b506040518060400160405280600581526020017f2e6a736f6e00000000000000000000000000000000000000000000000000000081525060089080519060200190620000799291906200012e565b503480156200008757600080fd5b506040518060400160405280600e81526020017f536b6f6f646c6520536b756c6c730000000000000000000000000000000000008152506040518060400160405280600381526020017f534b53000000000000000000000000000000000000000000000000000000000081525081600090805190602001906200010c9291906200012e565b508060019080519060200190620001259291906200012e565b50505062000243565b8280546200013c90620001de565b90600052602060002090601f016020900481019282620001605760008555620001ac565b82601f106200017b57805160ff1916838001178555620001ac565b82800160010185558215620001ac579182015b82811115620001ab5782518255916020019190600101906200018e565b5b509050620001bb9190620001bf565b5090565b5b80821115620001da576000816000905550600101620001c0565b5090565b60006002820490506001821680620001f757607f821691505b602082108114156200020e576200020d62000214565b5b50919050565b7f4e487b7100000000000000000000000000000000000000000000000000000000600052602260045260246000fd5b612b9a80620002536000396000f3fe608060405234801561001057600080fd5b506004361061010b5760003560e01c806362b99ad4116100a25780639f181b5e116100715780639f181b5e146102ba578063a22cb465146102d8578063b88d4fde146102f4578063c87b56dd14610310578063e985e9c5146103405761010b565b806362b99ad41461021e5780636352211e1461023c57806370a082311461026c57806395d89b411461029c5761010b565b80631249c58b116100de5780631249c58b146101aa57806323b872dd146101c857806342842e0e146101e45780635503a0e8146102005761010b565b806301ffc9a71461011057806306fdde0314610140578063081812fc1461015e578063095ea7b31461018e575b600080fd5b61012a60048036038101906101259190611c33565b610370565b60405161013791906120a2565b60405180910390f35b610148610452565b60405161015591906120bd565b60405180910390f35b61017860048036038101906101739190611c85565b6104e4565b604051610185919061203b565b60405180910390f35b6101a860048036038101906101a39190611bf7565b610569565b005b6101b2610681565b6040516101bf91906122bf565b60405180910390f35b6101e260048036038101906101dd9190611af1565b6106c7565b005b6101fe60048036038101906101f99190611af1565b610727565b005b610208610747565b60405161021591906120bd565b60405180910390f35b6102266107d5565b60405161023391906120bd565b60405180910390f35b61025660048036038101906102519190611c85565b610863565b604051610263919061203b565b60405180910390f35b61028660048036038101906102819190611a8c565b610915565b60405161029391906122bf565b60405180910390f35b6102a46109cd565b6040516102b191906120bd565b60405180910390f35b6102c2610a5f565b6040516102cf91906122bf565b60405180910390f35b6102f260048036038101906102ed9190611bbb565b610a65565b005b61030e60048036038101906103099190611b40565b610a7b565b005b61032a60048036038101906103259190611c85565b610add565b60405161033791906120bd565b60405180910390f35b61035a60048036038101906103559190611ab5565b610b87565b60405161036791906120a2565b60405180910390f35b60007f80ac58cd000000000000000000000000000000000000000000000000000000007bffffffffffffffffffffffffffffffffffffffffffffffffffffffff1916827bffffffffffffffffffffffffffffffffffffffffffffffffffffffff1916148061043b57507f5b5e139f000000000000000000000000000000000000000000000000000000007bffffffffffffffffffffffffffffffffffffffffffffffffffffffff1916827bffffffffffffffffffffffffffffffffffffffffffffffffffffffff1916145b8061044b575061044a82610c1b565b5b9050919050565b606060008054610461906124f9565b80601f016020809104026020016040519081016040528092919081815260200182805461048d906124f9565b80156104da5780601f106104af576101008083540402835291602001916104da565b820191906000526020600020905b8154815290600101906020018083116104bd57829003601f168201915b5050505050905090565b60006104ef82610c85565b61052e576040517f08c379a00000000000000000000000000000000000000000000000000000000081526004016105259061223f565b60405180910390fd5b6004600083815260200190815260200160002060009054906101000a900473ffffffffffffffffffffffffffffffffffffffff169050919050565b600061057482610863565b90508073ffffffffffffffffffffffffffffffffffffffff168373ffffffffffffffffffffffffffffffffffffffff1614156105e5576040517f08c379a00000000000000000000000000000000000000000000000000000000081526004016105dc9061227f565b60405180910390fd5b8073ffffffffffffffffffffffffffffffffffffffff16610604610cf1565b73ffffffffffffffffffffffffffffffffffffffff16148061063357506106328161062d610cf1565b610b87565b5b610672576040517f08c379a00000000000000000000000000000000000000000000000000000000081526004016106699061219f565b60405180910390fd5b61067c8383610cf9565b505050565b60006001600960008282546106969190612388565b925050819055506106a933600954610db2565b6106bf6009546106ba600954610add565b610dd0565b600954905090565b6106d86106d2610cf1565b82610e44565b610717576040517f08c379a000000000000000000000000000000000000000000000000000000000815260040161070e9061229f565b60405180910390fd5b610722838383610f22565b505050565b61074283838360405180602001604052806000815250610a7b565b505050565b60088054610754906124f9565b80601f0160208091040260200160405190810160405280929190818152602001828054610780906124f9565b80156107cd5780601f106107a2576101008083540402835291602001916107cd565b820191906000526020600020905b8154815290600101906020018083116107b057829003601f168201915b505050505081565b600780546107e2906124f9565b80601f016020809104026020016040519081016040528092919081815260200182805461080e906124f9565b801561085b5780601f106108305761010080835404028352916020019161085b565b820191906000526020600020905b81548152906001019060200180831161083e57829003601f168201915b505050505081565b6000806002600084815260200190815260200160002060009054906101000a900473ffffffffffffffffffffffffffffffffffffffff169050600073ffffffffffffffffffffffffffffffffffffffff168173ffffffffffffffffffffffffffffffffffffffff16141561090c576040517f08c379a0000000000000000000000000000000000000000000000000000000008152600401610903906121df565b60405180910390fd5b80915050919050565b60008073ffffffffffffffffffffffffffffffffffffffff168273ffffffffffffffffffffffffffffffffffffffff161415610986576040517f08c379a000000000000000000000000000000000000000000000000000000000815260040161097d906121bf565b60405180910390fd5b600360008373ffffffffffffffffffffffffffffffffffffffff1673ffffffffffffffffffffffffffffffffffffffff168152602001908152602001600020549050919050565b6060600180546109dc906124f9565b80601f0160208091040260200160405190810160405280929190818152602001828054610a08906124f9565b8015610a555780601f10610a2a57610100808354040283529160200191610a55565b820191906000526020600020905b815481529060010190602001808311610a3857829003601f168201915b5050505050905090565b60095481565b610a77610a70610cf1565b8383611189565b5050565b610a8c610a86610cf1565b83610e44565b610acb576040517f08c379a0000000000000000000000000000000000000000000000000000000008152600401610ac29061229f565b60405180910390fd5b610ad7848484846112f6565b50505050565b6060610ae882610c85565b610b27576040517f08c379a0000000000000000000000000000000000000000000000000000000008152600401610b1e9061225f565b60405180910390fd5b6000610b31611352565b90506000815111610b515760405180602001604052806000815250610b7f565b80610b5b84611372565b6008604051602001610b6f9392919061200a565b6040516020818303038152906040525b915050919050565b6000600560008473ffffffffffffffffffffffffffffffffffffffff1673ffffffffffffffffffffffffffffffffffffffff16815260200190815260200160002060008373ffffffffffffffffffffffffffffffffffffffff1673ffffffffffffffffffffffffffffffffffffffff16815260200190815260200160002060009054906101000a900460ff16905092915050565b60007f01ffc9a7000000000000000000000000000000000000000000000000000000007bffffffffffffffffffffffffffffffffffffffffffffffffffffffff1916827bffffffffffffffffffffffffffffffffffffffffffffffffffffffff1916149050919050565b60008073ffffffffffffffffffffffffffffffffffffffff166002600084815260200190815260200160002060009054906101000a900473ffffffffffffffffffffffffffffffffffffffff1673ffffffffffffffffffffffffffffffffffffffff1614159050919050565b600033905090565b816004600083815260200190815260200160002060006101000a81548173ffffffffffffffffffffffffffffffffffffffff021916908373ffffffffffffffffffffffffffffffffffffffff160217905550808273ffffffffffffffffffffffffffffffffffffffff16610d6c83610863565b73ffffffffffffffffffffffffffffffffffffffff167f8c5be1e5ebec7d5bd14f71427d1e84f3dd0314c0f7b2291e5b200ac8c7c3b92560405160405180910390a45050565b610dcc82826040518060200160405280600081525061151f565b5050565b610dd982610c85565b610e18576040517f08c379a0000000000000000000000000000000000000000000000000000000008152600401610e0f906121ff565b60405180910390fd5b80600660008481526020019081526020016000209080519060200190610e3f929190611918565b505050565b6000610e4f82610c85565b610e8e576040517f08c379a0000000000000000000000000000000000000000000000000000000008152600401610e859061217f565b60405180910390fd5b6000610e9983610863565b90508073ffffffffffffffffffffffffffffffffffffffff168473ffffffffffffffffffffffffffffffffffffffff161480610f0857508373ffffffffffffffffffffffffffffffffffffffff16610ef0846104e4565b73ffffffffffffffffffffffffffffffffffffffff16145b80610f195750610f188185610b87565b5b91505092915050565b8273ffffffffffffffffffffffffffffffffffffffff16610f4282610863565b73ffffffffffffffffffffffffffffffffffffffff1614610f98576040517f08c379a0000000000000000000000000000000000000000000000000000000008152600401610f8f906120ff565b60405180910390fd5b600073ffffffffffffffffffffffffffffffffffffffff168273ffffffffffffffffffffffffffffffffffffffff161415611008576040517f08c379a0000000000000000000000000000000000000000000000000000000008152600401610fff9061213f565b60405180910390fd5b61101383838361157a565b61101e600082610cf9565b6001600360008573ffffffffffffffffffffffffffffffffffffffff1673ffffffffffffffffffffffffffffffffffffffff168152602001908152602001600020600082825461106e919061240f565b925050819055506001600360008473ffffffffffffffffffffffffffffffffffffffff1673ffffffffffffffffffffffffffffffffffffffff16815260200190815260200160002060008282546110c59190612388565b92505081905550816002600083815260200190815260200160002060006101000a81548173ffffffffffffffffffffffffffffffffffffffff021916908373ffffffffffffffffffffffffffffffffffffffff160217905550808273ffffffffffffffffffffffffffffffffffffffff168473ffffffffffffffffffffffffffffffffffffffff167fddf252ad1be2c89b69c2b068fc378daa952ba7f163c4a11628f55a4df523b3ef60405160405180910390a461118483838361157f565b505050565b8173ffffffffffffffffffffffffffffffffffffffff168373ffffffffffffffffffffffffffffffffffffffff1614156111f8576040517f08c379a00000000000000000000000000000000000000000000000000000000081526004016111ef9061215f565b60405180910390fd5b80600560008573ffffffffffffffffffffffffffffffffffffffff1673ffffffffffffffffffffffffffffffffffffffff16815260200190815260200160002060008473ffffffffffffffffffffffffffffffffffffffff1673ffffffffffffffffffffffffffffffffffffffff16815260200190815260200160002060006101000a81548160ff0219169083151502179055508173ffffffffffffffffffffffffffffffffffffffff168373ffffffffffffffffffffffffffffffffffffffff167f17307eab39ab6107e8899845ad3d59bd9653f200f220920489ca2b5937696c31836040516112e991906120a2565b60405180910390a3505050565b611301848484610f22565b61130d84848484611584565b61134c576040517f08c379a0000000000000000000000000000000000000000000000000000000008152600401611343906120df565b60405180910390fd5b50505050565b6060604051806060016040528060368152602001612b2f60369139905090565b606060008214156113ba576040518060400160405280600181526020017f3000000000000000000000000000000000000000000000000000000000000000815250905061151a565b600082905060005b600082146113ec5780806113d59061255c565b915050600a826113e591906123de565b91506113c2565b60008167ffffffffffffffff81111561142e577f4e487b7100000000000000000000000000000000000000000000000000000000600052604160045260246000fd5b6040519080825280601f01601f1916602001820160405280156114605781602001600182028036833780820191505090505b5090505b6000851461151357600182611479919061240f565b9150600a8561148891906125a5565b60306114949190612388565b60f81b8183815181106114d0577f4e487b7100000000000000000000000000000000000000000000000000000000600052603260045260246000fd5b60200101907effffffffffffffffffffffffffffffffffffffffffffffffffffffffffffff1916908160001a905350600a8561150c91906123de565b9450611464565b8093505050505b919050565b611529838361171b565b6115366000848484611584565b611575576040517f08c379a000000000000000000000000000000000000000000000000000000000815260040161156c906120df565b60405180910390fd5b505050565b505050565b505050565b60006115a58473ffffffffffffffffffffffffffffffffffffffff166118f5565b1561170e578373ffffffffffffffffffffffffffffffffffffffff1663150b7a026115ce610cf1565b8786866040518563ffffffff1660e01b81526004016115f09493929190612056565b602060405180830381600087803b15801561160a57600080fd5b505af192505050801561163b57506040513d601f19601f820116820180604052508101906116389190611c5c565b60015b6116be573d806000811461166b576040519150601f19603f3d011682016040523d82523d6000602084013e611670565b606091505b506000815114156116b6576040517f08c379a00000000000000000000000000000000000000000000000000000000081526004016116ad906120df565b60405180910390fd5b805181602001fd5b63150b7a0260e01b7bffffffffffffffffffffffffffffffffffffffffffffffffffffffff1916817bffffffffffffffffffffffffffffffffffffffffffffffffffffffff191614915050611713565b600190505b949350505050565b600073ffffffffffffffffffffffffffffffffffffffff168273ffffffffffffffffffffffffffffffffffffffff16141561178b576040517f08c379a00000000000000000000000000000000000000000000000000000000081526004016117829061221f565b60405180910390fd5b61179481610c85565b156117d4576040517f08c379a00000000000000000000000000000000000000000000000000000000081526004016117cb9061211f565b60405180910390fd5b6117e06000838361157a565b6001600360008473ffffffffffffffffffffffffffffffffffffffff1673ffffffffffffffffffffffffffffffffffffffff16815260200190815260200160002060008282546118309190612388565b92505081905550816002600083815260200190815260200160002060006101000a81548173ffffffffffffffffffffffffffffffffffffffff021916908373ffffffffffffffffffffffffffffffffffffffff160217905550808273ffffffffffffffffffffffffffffffffffffffff16600073ffffffffffffffffffffffffffffffffffffffff167fddf252ad1be2c89b69c2b068fc378daa952ba7f163c4a11628f55a4df523b3ef60405160405180910390a46118f16000838361157f565b5050565b6000808273ffffffffffffffffffffffffffffffffffffffff163b119050919050565b828054611924906124f9565b90600052602060002090601f016020900481019282611946576000855561198d565b82601f1061195f57805160ff191683800117855561198d565b8280016001018555821561198d579182015b8281111561198c578251825591602001919060010190611971565b5b50905061199a919061199e565b5090565b5b808211156119b757600081600090555060010161199f565b5090565b60006119ce6119c9846122ff565b6122da565b9050828152602081018484840111156119e657600080fd5b6119f18482856124b7565b509392505050565b600081359050611a0881612ad2565b92915050565b600081359050611a1d81612ae9565b92915050565b600081359050611a3281612b00565b92915050565b600081519050611a4781612b00565b92915050565b600082601f830112611a5e57600080fd5b8135611a6e8482602086016119bb565b91505092915050565b600081359050611a8681612b17565b92915050565b600060208284031215611a9e57600080fd5b6000611aac848285016119f9565b91505092915050565b60008060408385031215611ac857600080fd5b6000611ad6858286016119f9565b9250506020611ae7858286016119f9565b9150509250929050565b600080600060608486031215611b0657600080fd5b6000611b14868287016119f9565b9350506020611b25868287016119f9565b9250506040611b3686828701611a77565b9150509250925092565b60008060008060808587031215611b5657600080fd5b6000611b64878288016119f9565b9450506020611b75878288016119f9565b9350506040611b8687828801611a77565b925050606085013567ffffffffffffffff811115611ba357600080fd5b611baf87828801611a4d565b91505092959194509250565b60008060408385031215611bce57600080fd5b6000611bdc858286016119f9565b9250506020611bed85828601611a0e565b9150509250929050565b60008060408385031215611c0a57600080fd5b6000611c18858286016119f9565b9250506020611c2985828601611a77565b9150509250929050565b600060208284031215611c4557600080fd5b6000611c5384828501611a23565b91505092915050565b600060208284031215611c6e57600080fd5b6000611c7c84828501611a38565b91505092915050565b600060208284031215611c9757600080fd5b6000611ca584828501611a77565b91505092915050565b611cb781612443565b82525050565b611cc681612455565b82525050565b6000611cd782612345565b611ce1818561235b565b9350611cf18185602086016124c6565b611cfa81612692565b840191505092915050565b6000611d1082612350565b611d1a818561236c565b9350611d2a8185602086016124c6565b611d3381612692565b840191505092915050565b6000611d4982612350565b611d53818561237d565b9350611d638185602086016124c6565b80840191505092915050565b60008154611d7c816124f9565b611d86818661237d565b94506001821660008114611da15760018114611db257611de5565b60ff19831686528186019350611de5565b611dbb85612330565b60005b83811015611ddd57815481890152600182019150602081019050611dbe565b838801955050505b50505092915050565b6000611dfb60328361236c565b9150611e06826126a3565b604082019050919050565b6000611e1e60258361236c565b9150611e29826126f2565b604082019050919050565b6000611e41601c8361236c565b9150611e4c82612741565b602082019050919050565b6000611e6460248361236c565b9150611e6f8261276a565b604082019050919050565b6000611e8760198361236c565b9150611e92826127b9565b602082019050919050565b6000611eaa602c8361236c565b9150611eb5826127e2565b604082019050919050565b6000611ecd60388361236c565b9150611ed882612831565b604082019050919050565b6000611ef0602a8361236c565b9150611efb82612880565b604082019050919050565b6000611f1360298361236c565b9150611f1e826128cf565b604082019050919050565b6000611f36602e8361236c565b9150611f418261291e565b604082019050919050565b6000611f5960208361236c565b9150611f648261296d565b602082019050919050565b6000611f7c602c8361236c565b9150611f8782612996565b604082019050919050565b6000611f9f602f8361236c565b9150611faa826129e5565b604082019050919050565b6000611fc260218361236c565b9150611fcd82612a34565b604082019050919050565b6000611fe560318361236c565b9150611ff082612a83565b604082019050919050565b612004816124ad565b82525050565b60006120168286611d3e565b91506120228285611d3e565b915061202e8284611d6f565b9150819050949350505050565b60006020820190506120506000830184611cae565b92915050565b600060808201905061206b6000830187611cae565b6120786020830186611cae565b6120856040830185611ffb565b81810360608301526120978184611ccc565b905095945050505050565b60006020820190506120b76000830184611cbd565b92915050565b600060208201905081810360008301526120d78184611d05565b905092915050565b600060208201905081810360008301526120f881611dee565b9050919050565b6000602082019050818103600083015261211881611e11565b9050919050565b6000602082019050818103600083015261213881611e34565b9050919050565b6000602082019050818103600083015261215881611e57565b9050919050565b6000602082019050818103600083015261217881611e7a565b9050919050565b6000602082019050818103600083015261219881611e9d565b9050919050565b600060208201905081810360008301526121b881611ec0565b9050919050565b600060208201905081810360008301526121d881611ee3565b9050919050565b600060208201905081810360008301526121f881611f06565b9050919050565b6000602082019050818103600083015261221881611f29565b9050919050565b6000602082019050818103600083015261223881611f4c565b9050919050565b6000602082019050818103600083015261225881611f6f565b9050919050565b6000602082019050818103600083015261227881611f92565b9050919050565b6000602082019050818103600083015261229881611fb5565b9050919050565b600060208201905081810360008301526122b881611fd8565b9050919050565b60006020820190506122d46000830184611ffb565b92915050565b60006122e46122f5565b90506122f0828261252b565b919050565b6000604051905090565b600067ffffffffffffffff82111561231a57612319612663565b5b61232382612692565b9050602081019050919050565b60008190508160005260206000209050919050565b600081519050919050565b600081519050919050565b600082825260208201905092915050565b600082825260208201905092915050565b600081905092915050565b6000612393826124ad565b915061239e836124ad565b9250827fffffffffffffffffffffffffffffffffffffffffffffffffffffffffffffffff038211156123d3576123d26125d6565b5b828201905092915050565b60006123e9826124ad565b91506123f4836124ad565b92508261240457612403612605565b5b828204905092915050565b600061241a826124ad565b9150612425836124ad565b925082821015612438576124376125d6565b5b828203905092915050565b600061244e8261248d565b9050919050565b60008115159050919050565b60007fffffffff0000000000000000000000000000000000000000000000000000000082169050919050565b600073ffffffffffffffffffffffffffffffffffffffff82169050919050565b6000819050919050565b82818337600083830152505050565b60005b838110156124e45780820151818401526020810190506124c9565b838111156124f3576000848401525b50505050565b6000600282049050600182168061251157607f821691505b6020821081141561252557612524612634565b5b50919050565b61253482612692565b810181811067ffffffffffffffff8211171561255357612552612663565b5b80604052505050565b6000612567826124ad565b91507fffffffffffffffffffffffffffffffffffffffffffffffffffffffffffffffff82141561259a576125996125d6565b5b600182019050919050565b60006125b0826124ad565b91506125bb836124ad565b9250826125cb576125ca612605565b5b828206905092915050565b7f4e487b7100000000000000000000000000000000000000000000000000000000600052601160045260246000fd5b7f4e487b7100000000000000000000000000000000000000000000000000000000600052601260045260246000fd5b7f4e487b7100000000000000000000000000000000000000000000000000000000600052602260045260246000fd5b7f4e487b7100000000000000000000000000000000000000000000000000000000600052604160045260246000fd5b6000601f19601f8301169050919050565b7f4552433732313a207472616e7366657220746f206e6f6e20455243373231526560008201527f63656976657220696d706c656d656e7465720000000000000000000000000000602082015250565b7f4552433732313a207472616e736665722066726f6d20696e636f72726563742060008201527f6f776e6572000000000000000000000000000000000000000000000000000000602082015250565b7f4552433732313a20746f6b656e20616c7265616479206d696e74656400000000600082015250565b7f4552433732313a207472616e7366657220746f20746865207a65726f2061646460008201527f7265737300000000000000000000000000000000000000000000000000000000602082015250565b7f4552433732313a20617070726f766520746f2063616c6c657200000000000000600082015250565b7f4552433732313a206f70657261746f7220717565727920666f72206e6f6e657860008201527f697374656e7420746f6b656e0000000000000000000000000000000000000000602082015250565b7f4552433732313a20617070726f76652063616c6c6572206973206e6f74206f7760008201527f6e6572206e6f7220617070726f76656420666f7220616c6c0000000000000000602082015250565b7f4552433732313a2062616c616e636520717565727920666f7220746865207a6560008201527f726f206164647265737300000000000000000000000000000000000000000000602082015250565b7f4552433732313a206f776e657220717565727920666f72206e6f6e657869737460008201527f656e7420746f6b656e0000000000000000000000000000000000000000000000602082015250565b7f45524337323155524953746f726167653a2055524920736574206f66206e6f6e60008201527f6578697374656e7420746f6b656e000000000000000000000000000000000000602082015250565b7f4552433732313a206d696e7420746f20746865207a65726f2061646472657373600082015250565b7f4552433732313a20617070726f76656420717565727920666f72206e6f6e657860008201527f697374656e7420746f6b656e0000000000000000000000000000000000000000602082015250565b7f4552433732314d657461646174613a2055524920717565727920666f72206e6f60008201527f6e6578697374656e7420746f6b656e0000000000000000000000000000000000602082015250565b7f4552433732313a20617070726f76616c20746f2063757272656e74206f776e6560008201527f7200000000000000000000000000000000000000000000000000000000000000602082015250565b7f4552433732313a207472616e736665722063616c6c6572206973206e6f74206f60008201527f776e6572206e6f7220617070726f766564000000000000000000000000000000602082015250565b612adb81612443565b8114612ae657600080fd5b50565b612af281612455565b8114612afd57600080fd5b50565b612b0981612461565b8114612b1457600080fd5b50565b612b20816124ad565b8114612b2b57600080fd5b5056fe697066733a2f2f516d5a5277335956703831776141436339414d673363376276653355344c5a454250346f4457656e6552526e33442fa264697066735822122090e14595dc1c48149c5b7407db6da521b00be30c83894ccc103832bf8e2a395764736f6c63430008040033",
  "linkReferences": {},
  "deployedLinkReferences": {}
}