{
  "_format": "hh-sol-artifact-1",
  "contractName": "NFT",
  "sourceName": "src/backend/contracts/NFT.sol",
  "abi": [
    {
      "inputs": [],
      "stateMutability": "nonpayable",
      "type": "constructor"
    },
    {
      "anonymous": false,
      "inputs": [
        {
          "indexed": true,
          "internalType": "address",
          "name": "owner",
          "type": "address"
        },
        {
          "indexed": true,
          "internalType": "address",
          "name": "approved",
          "type": "address"
        },
        {
          "indexed": true,
          "internalType": "uint256",
          "name": "tokenId",
          "type": "uint256"
        }
      ],
      "name": "Approval",
      "type": "event"
    },
    {
      "anonymous": false,
      "inputs": [
        {
          "indexed": true,
          "internalType": "address",
          "name": "owner",
          "type": "address"
        },
        {
          "indexed": true,
          "internalType": "address",
          "name": "operator",
          "type": "address"
        },
        {
          "indexed": false,
          "internalType": "bool",
          "name": "approved",
          "type": "bool"
        }
      ],
      "name": "ApprovalForAll",
      "type": "event"
    },
    {
      "anonymous": false,
      "inputs": [
        {
          "indexed": true,
          "internalType": "address",
          "name": "previousOwner",
          "type": "address"
        },
        {
          "indexed": true,
          "internalType": "address",
          "name": "newOwner",
          "type": "address"
        }
      ],
      "name": "OwnershipTransferred",
      "type": "event"
    },
    {
      "anonymous": false,
      "inputs": [
        {
          "indexed": true,
          "internalType": "address",
          "name": "from",
          "type": "address"
        },
        {
          "indexed": true,
          "internalType": "address",
          "name": "to",
          "type": "address"
        },
        {
          "indexed": true,
          "internalType": "uint256",
          "name": "tokenId",
          "type": "uint256"
        }
      ],
      "name": "Transfer",
      "type": "event"
    },
    {
      "inputs": [
        {
          "internalType": "address",
          "name": "to",
          "type": "address"
        },
        {
          "internalType": "uint256",
          "name": "tokenId",
          "type": "uint256"
        }
      ],
      "name": "approve",
      "outputs": [],
      "stateMutability": "nonpayable",
      "type": "function"
    },
    {
      "inputs": [
        {
          "internalType": "address",
          "name": "owner",
          "type": "address"
        }
      ],
      "name": "balanceOf",
      "outputs": [
        {
          "internalType": "uint256",
          "name": "",
          "type": "uint256"
        }
      ],
      "stateMutability": "view",
      "type": "function"
    },
    {
      "inputs": [],
      "name": "baseTokenURI",
      "outputs": [
        {
          "internalType": "string",
          "name": "",
          "type": "string"
        }
      ],
      "stateMutability": "pure",
      "type": "function"
    },
    {
      "inputs": [],
      "name": "contractURI",
      "outputs": [
        {
          "internalType": "string",
          "name": "",
          "type": "string"
        }
      ],
      "stateMutability": "pure",
      "type": "function"
    },
    {
      "inputs": [
        {
          "internalType": "uint256",
          "name": "tokenId",
          "type": "uint256"
        }
      ],
      "name": "getApproved",
      "outputs": [
        {
          "internalType": "address",
          "name": "",
          "type": "address"
        }
      ],
      "stateMutability": "view",
      "type": "function"
    },
    {
      "inputs": [
        {
          "internalType": "address",
          "name": "owner",
          "type": "address"
        },
        {
          "internalType": "address",
          "name": "operator",
          "type": "address"
        }
      ],
      "name": "isApprovedForAll",
      "outputs": [
        {
          "internalType": "bool",
          "name": "",
          "type": "bool"
        }
      ],
      "stateMutability": "view",
      "type": "function"
    },
    {
      "inputs": [],
      "name": "mint",
      "outputs": [
        {
          "internalType": "uint256",
          "name": "",
          "type": "uint256"
        }
      ],
      "stateMutability": "nonpayable",
      "type": "function"
    },
    {
      "inputs": [],
      "name": "name",
      "outputs": [
        {
          "internalType": "string",
          "name": "",
          "type": "string"
        }
      ],
      "stateMutability": "view",
      "type": "function"
    },
    {
      "inputs": [],
      "name": "owner",
      "outputs": [
        {
          "internalType": "address",
          "name": "",
          "type": "address"
        }
      ],
      "stateMutability": "view",
      "type": "function"
    },
    {
      "inputs": [
        {
          "internalType": "uint256",
          "name": "tokenId",
          "type": "uint256"
        }
      ],
      "name": "ownerOf",
      "outputs": [
        {
          "internalType": "address",
          "name": "",
          "type": "address"
        }
      ],
      "stateMutability": "view",
      "type": "function"
    },
    {
      "inputs": [],
      "name": "renounceOwnership",
      "outputs": [],
      "stateMutability": "nonpayable",
      "type": "function"
    },
    {
      "inputs": [
        {
          "internalType": "uint256",
          "name": "_tokenId",
          "type": "uint256"
        },
        {
          "internalType": "uint256",
          "name": "_salePrice",
          "type": "uint256"
        }
      ],
      "name": "royaltyInfo",
      "outputs": [
        {
          "internalType": "address",
          "name": "receiver",
          "type": "address"
        },
        {
          "internalType": "uint256",
          "name": "royaltyAmount",
          "type": "uint256"
        }
      ],
      "stateMutability": "view",
      "type": "function"
    },
    {
      "inputs": [
        {
          "internalType": "address",
          "name": "from",
          "type": "address"
        },
        {
          "internalType": "address",
          "name": "to",
          "type": "address"
        },
        {
          "internalType": "uint256",
          "name": "tokenId",
          "type": "uint256"
        }
      ],
      "name": "safeTransferFrom",
      "outputs": [],
      "stateMutability": "nonpayable",
      "type": "function"
    },
    {
      "inputs": [
        {
          "internalType": "address",
          "name": "from",
          "type": "address"
        },
        {
          "internalType": "address",
          "name": "to",
          "type": "address"
        },
        {
          "internalType": "uint256",
          "name": "tokenId",
          "type": "uint256"
        },
        {
          "internalType": "bytes",
          "name": "_data",
          "type": "bytes"
        }
      ],
      "name": "safeTransferFrom",
      "outputs": [],
      "stateMutability": "nonpayable",
      "type": "function"
    },
    {
      "inputs": [
        {
          "internalType": "address",
          "name": "operator",
          "type": "address"
        },
        {
          "internalType": "bool",
          "name": "approved",
          "type": "bool"
        }
      ],
      "name": "setApprovalForAll",
      "outputs": [],
      "stateMutability": "nonpayable",
      "type": "function"
    },
    {
      "inputs": [
        {
          "internalType": "address",
          "name": "newRecipient",
          "type": "address"
        }
      ],
      "name": "setRoyalties",
      "outputs": [],
      "stateMutability": "nonpayable",
      "type": "function"
    },
    {
      "inputs": [
        {
          "internalType": "bytes4",
          "name": "interfaceId",
          "type": "bytes4"
        }
      ],
      "name": "supportsInterface",
      "outputs": [
        {
          "internalType": "bool",
          "name": "",
          "type": "bool"
        }
      ],
      "stateMutability": "view",
      "type": "function"
    },
    {
      "inputs": [],
      "name": "symbol",
      "outputs": [
        {
          "internalType": "string",
          "name": "",
          "type": "string"
        }
      ],
      "stateMutability": "view",
      "type": "function"
    },
    {
      "inputs": [],
      "name": "tokenCount",
      "outputs": [
        {
          "internalType": "uint256",
          "name": "",
          "type": "uint256"
        }
      ],
      "stateMutability": "view",
      "type": "function"
    },
    {
      "inputs": [
        {
          "internalType": "uint256",
          "name": "_tokenId",
          "type": "uint256"
        }
      ],
      "name": "tokenURI",
      "outputs": [
        {
          "internalType": "string",
          "name": "",
          "type": "string"
        }
      ],
      "stateMutability": "view",
      "type": "function"
    },
    {
      "inputs": [],
      "name": "totalSupply",
      "outputs": [
        {
          "internalType": "uint256",
          "name": "",
          "type": "uint256"
        }
      ],
      "stateMutability": "view",
      "type": "function"
    },
    {
      "inputs": [],
      "name": "total_supply",
      "outputs": [
        {
          "internalType": "uint256",
          "name": "",
          "type": "uint256"
        }
      ],
      "stateMutability": "view",
      "type": "function"
    },
    {
      "inputs": [
        {
          "internalType": "address",
          "name": "from",
          "type": "address"
        },
        {
          "internalType": "address",
          "name": "to",
          "type": "address"
        },
        {
          "internalType": "uint256",
          "name": "tokenId",
          "type": "uint256"
        }
      ],
      "name": "transferFrom",
      "outputs": [],
      "stateMutability": "nonpayable",
      "type": "function"
    },
    {
      "inputs": [
        {
          "internalType": "address",
          "name": "newOwner",
          "type": "address"
        }
      ],
      "name": "transferOwnership",
      "outputs": [],
      "stateMutability": "nonpayable",
      "type": "function"
    },
    {
      "inputs": [],
      "name": "uriPrefix",
      "outputs": [
        {
          "internalType": "string",
          "name": "",
          "type": "string"
        }
      ],
      "stateMutability": "view",
      "type": "function"
    },
    {
      "inputs": [],
      "name": "uriSuffix",
      "outputs": [
        {
          "internalType": "string",
          "name": "",
          "type": "string"
        }
      ],
      "stateMutability": "view",
      "type": "function"
    }
  ],
  "bytecode": "0x608060405260405180602001604052806000815250600890805190602001906200002b9291906200029f565b506040518060400160405280600581526020017f2e6a736f6e00000000000000000000000000000000000000000000000000000081525060099080519060200190620000799291906200029f565b503480156200008757600080fd5b506040518060400160405280600e81526020017f536b6f6f646c6520536b756c6c730000000000000000000000000000000000008152506040518060400160405280600381526020017f534b53000000000000000000000000000000000000000000000000000000000081525081600090805190602001906200010c9291906200029f565b508060019080519060200190620001259291906200029f565b505050620001486200013c620001a760201b60201c565b620001af60201b60201c565b610fa0600b81905550620001616200027560201b60201c565b600c60006101000a81548173ffffffffffffffffffffffffffffffffffffffff021916908373ffffffffffffffffffffffffffffffffffffffff160217905550620003b4565b600033905090565b6000600760009054906101000a900473ffffffffffffffffffffffffffffffffffffffff16905081600760006101000a81548173ffffffffffffffffffffffffffffffffffffffff021916908373ffffffffffffffffffffffffffffffffffffffff1602179055508173ffffffffffffffffffffffffffffffffffffffff168173ffffffffffffffffffffffffffffffffffffffff167f8be0079c531659141344cd1fd0a4f28419497f9722a3daafe3b4186f6b6457e060405160405180910390a35050565b6000600760009054906101000a900473ffffffffffffffffffffffffffffffffffffffff16905090565b828054620002ad906200034f565b90600052602060002090601f016020900481019282620002d157600085556200031d565b82601f10620002ec57805160ff19168380011785556200031d565b828001600101855582156200031d579182015b828111156200031c578251825591602001919060010190620002ff565b5b5090506200032c919062000330565b5090565b5b808211156200034b57600081600090555060010162000331565b5090565b600060028204905060018216806200036857607f821691505b602082108114156200037f576200037e62000385565b5b50919050565b7f4e487b7100000000000000000000000000000000000000000000000000000000600052602260045260246000fd5b6135a880620003c46000396000f3fe608060405234801561001057600080fd5b506004361061018e5760003560e01c80636352211e116100de578063a22cb46511610097578063d547cfb711610071578063d547cfb714610474578063e8a3d48514610492578063e985e9c5146104b0578063f2fde38b146104e05761018e565b8063a22cb4651461040c578063b88d4fde14610428578063c87b56dd146104445761018e565b80636352211e1461034857806370a0823114610378578063715018a6146103a85780638da5cb5b146103b257806395d89b41146103d05780639f181b5e146103ee5761018e565b806323b872dd1161014b5780633940e9ee116101255780633940e9ee146102d257806342842e0e146102f05780635503a0e81461030c57806362b99ad41461032a5761018e565b806323b872dd146102695780632a55205a146102855780632a9e63c6146102b65761018e565b806301ffc9a71461019357806306fdde03146101c3578063081812fc146101e1578063095ea7b3146102115780631249c58b1461022d57806318160ddd1461024b575b600080fd5b6101ad60048036038101906101a8919061232a565b6104fc565b6040516101ba919061288a565b60405180910390f35b6101cb6105de565b6040516101d891906128a5565b60405180910390f35b6101fb60048036038101906101f6919061237c565b610670565b60405161020891906127fa565b60405180910390f35b61022b600480360381019061022691906122ee565b6106f5565b005b61023561080d565b6040516102429190612b27565b60405180910390f35b610253610853565b6040516102609190612b27565b60405180910390f35b610283600480360381019061027e91906121e8565b61085d565b005b61029f600480360381019061029a91906123a5565b6108bd565b6040516102ad929190612861565b60405180910390f35b6102d060048036038101906102cb9190612183565b610909565b005b6102da610991565b6040516102e79190612b27565b60405180910390f35b61030a600480360381019061030591906121e8565b610997565b005b6103146109b7565b60405161032191906128a5565b60405180910390f35b610332610a45565b60405161033f91906128a5565b60405180910390f35b610362600480360381019061035d919061237c565b610ad3565b60405161036f91906127fa565b60405180910390f35b610392600480360381019061038d9190612183565b610b85565b60405161039f9190612b27565b60405180910390f35b6103b0610c3d565b005b6103ba610cc5565b6040516103c791906127fa565b60405180910390f35b6103d8610cef565b6040516103e591906128a5565b60405180910390f35b6103f6610d81565b6040516104039190612b27565b60405180910390f35b610426600480360381019061042191906122b2565b610d87565b005b610442600480360381019061043d9190612237565b610d9d565b005b61045e6004803603810190610459919061237c565b610dff565b60405161046b91906128a5565b60405180910390f35b61047c610efb565b60405161048991906128a5565b60405180910390f35b61049a610f0a565b6040516104a791906128a5565b60405180910390f35b6104ca60048036038101906104c591906121ac565b610f2a565b6040516104d7919061288a565b60405180910390f35b6104fa60048036038101906104f59190612183565b610fbe565b005b60007fc87b56dd000000000000000000000000000000000000000000000000000000007bffffffffffffffffffffffffffffffffffffffffffffffffffffffff1916827bffffffffffffffffffffffffffffffffffffffffffffffffffffffff191614806105c757507f2a55205a000000000000000000000000000000000000000000000000000000007bffffffffffffffffffffffffffffffffffffffffffffffffffffffff1916827bffffffffffffffffffffffffffffffffffffffffffffffffffffffff1916145b806105d757506105d6826110b6565b5b9050919050565b6060600080546105ed90612dbb565b80601f016020809104026020016040519081016040528092919081815260200182805461061990612dbb565b80156106665780601f1061063b57610100808354040283529160200191610666565b820191906000526020600020905b81548152906001019060200180831161064957829003601f168201915b5050505050905090565b600061067b82611198565b6106ba576040517f08c379a00000000000000000000000000000000000000000000000000000000081526004016106b190612a47565b60405180910390fd5b6004600083815260200190815260200160002060009054906101000a900473ffffffffffffffffffffffffffffffffffffffff169050919050565b600061070082610ad3565b90508073ffffffffffffffffffffffffffffffffffffffff168373ffffffffffffffffffffffffffffffffffffffff161415610771576040517f08c379a000000000000000000000000000000000000000000000000000000000815260040161076890612aa7565b60405180910390fd5b8073ffffffffffffffffffffffffffffffffffffffff16610790611204565b73ffffffffffffffffffffffffffffffffffffffff1614806107bf57506107be816107b9611204565b610f2a565b5b6107fe576040517f08c379a00000000000000000000000000000000000000000000000000000000081526004016107f5906129a7565b60405180910390fd5b610808838361120c565b505050565b60006001600a60008282546108229190612bf0565b9250508190555061083533600a546112c5565b61084b600a54610846600a54610dff565b6112e3565b600a54905090565b6000600a54905090565b61086e610868611204565b82611357565b6108ad576040517f08c379a00000000000000000000000000000000000000000000000000000000081526004016108a490612ae7565b60405180910390fd5b6108b8838383611435565b505050565b600080600c60009054906101000a900473ffffffffffffffffffffffffffffffffffffffff166127106101f4856108f49190612c77565b6108fe9190612c46565b915091509250929050565b610911611204565b73ffffffffffffffffffffffffffffffffffffffff1661092f610cc5565b73ffffffffffffffffffffffffffffffffffffffff1614610985576040517f08c379a000000000000000000000000000000000000000000000000000000000815260040161097c90612a67565b60405180910390fd5b61098e8161169c565b50565b600b5481565b6109b283838360405180602001604052806000815250610d9d565b505050565b600980546109c490612dbb565b80601f01602080910402602001604051908101604052809291908181526020018280546109f090612dbb565b8015610a3d5780601f10610a1257610100808354040283529160200191610a3d565b820191906000526020600020905b815481529060010190602001808311610a2057829003601f168201915b505050505081565b60088054610a5290612dbb565b80601f0160208091040260200160405190810160405280929190818152602001828054610a7e90612dbb565b8015610acb5780601f10610aa057610100808354040283529160200191610acb565b820191906000526020600020905b815481529060010190602001808311610aae57829003601f168201915b505050505081565b6000806002600084815260200190815260200160002060009054906101000a900473ffffffffffffffffffffffffffffffffffffffff169050600073ffffffffffffffffffffffffffffffffffffffff168173ffffffffffffffffffffffffffffffffffffffff161415610b7c576040517f08c379a0000000000000000000000000000000000000000000000000000000008152600401610b73906129e7565b60405180910390fd5b80915050919050565b60008073ffffffffffffffffffffffffffffffffffffffff168273ffffffffffffffffffffffffffffffffffffffff161415610bf6576040517f08c379a0000000000000000000000000000000000000000000000000000000008152600401610bed906129c7565b60405180910390fd5b600360008373ffffffffffffffffffffffffffffffffffffffff1673ffffffffffffffffffffffffffffffffffffffff168152602001908152602001600020549050919050565b610c45611204565b73ffffffffffffffffffffffffffffffffffffffff16610c63610cc5565b73ffffffffffffffffffffffffffffffffffffffff1614610cb9576040517f08c379a0000000000000000000000000000000000000000000000000000000008152600401610cb090612a67565b60405180910390fd5b610cc36000611750565b565b6000600760009054906101000a900473ffffffffffffffffffffffffffffffffffffffff16905090565b606060018054610cfe90612dbb565b80601f0160208091040260200160405190810160405280929190818152602001828054610d2a90612dbb565b8015610d775780601f10610d4c57610100808354040283529160200191610d77565b820191906000526020600020905b815481529060010190602001808311610d5a57829003601f168201915b5050505050905090565b600a5481565b610d99610d92611204565b8383611816565b5050565b610dae610da8611204565b83611357565b610ded576040517f08c379a0000000000000000000000000000000000000000000000000000000008152600401610de490612ae7565b60405180910390fd5b610df984848484611983565b50505050565b6060610e0a82611198565b610e49576040517f08c379a0000000000000000000000000000000000000000000000000000000008152600401610e4090612a87565b60405180910390fd5b60018210158015610e5c5750600b548211155b610e9b576040517f08c379a0000000000000000000000000000000000000000000000000000000008152600401610e9290612b07565b60405180910390fd5b6000610ea56119df565b90506000815111610ec55760405180602001604052806000815250610ef3565b80610ecf846119ff565b6009604051602001610ee3939291906127c9565b6040516020818303038152906040525b915050919050565b6060610f056119df565b905090565b606060405180606001604052806036815260200161350760369139905090565b6000600560008473ffffffffffffffffffffffffffffffffffffffff1673ffffffffffffffffffffffffffffffffffffffff16815260200190815260200160002060008373ffffffffffffffffffffffffffffffffffffffff1673ffffffffffffffffffffffffffffffffffffffff16815260200190815260200160002060009054906101000a900460ff16905092915050565b610fc6611204565b73ffffffffffffffffffffffffffffffffffffffff16610fe4610cc5565b73ffffffffffffffffffffffffffffffffffffffff161461103a576040517f08c379a000000000000000000000000000000000000000000000000000000000815260040161103190612a67565b60405180910390fd5b600073ffffffffffffffffffffffffffffffffffffffff168173ffffffffffffffffffffffffffffffffffffffff1614156110aa576040517f08c379a00000000000000000000000000000000000000000000000000000000081526004016110a1906128e7565b60405180910390fd5b6110b381611750565b50565b60007f80ac58cd000000000000000000000000000000000000000000000000000000007bffffffffffffffffffffffffffffffffffffffffffffffffffffffff1916827bffffffffffffffffffffffffffffffffffffffffffffffffffffffff1916148061118157507f5b5e139f000000000000000000000000000000000000000000000000000000007bffffffffffffffffffffffffffffffffffffffffffffffffffffffff1916827bffffffffffffffffffffffffffffffffffffffffffffffffffffffff1916145b80611191575061119082611bac565b5b9050919050565b60008073ffffffffffffffffffffffffffffffffffffffff166002600084815260200190815260200160002060009054906101000a900473ffffffffffffffffffffffffffffffffffffffff1673ffffffffffffffffffffffffffffffffffffffff1614159050919050565b600033905090565b816004600083815260200190815260200160002060006101000a81548173ffffffffffffffffffffffffffffffffffffffff021916908373ffffffffffffffffffffffffffffffffffffffff160217905550808273ffffffffffffffffffffffffffffffffffffffff1661127f83610ad3565b73ffffffffffffffffffffffffffffffffffffffff167f8c5be1e5ebec7d5bd14f71427d1e84f3dd0314c0f7b2291e5b200ac8c7c3b92560405160405180910390a45050565b6112df828260405180602001604052806000815250611c16565b5050565b6112ec82611198565b61132b576040517f08c379a000000000000000000000000000000000000000000000000000000000815260040161132290612a07565b60405180910390fd5b8060066000848152602001908152602001600020908051906020019061135292919061200f565b505050565b600061136282611198565b6113a1576040517f08c379a000000000000000000000000000000000000000000000000000000000815260040161139890612987565b60405180910390fd5b60006113ac83610ad3565b90508073ffffffffffffffffffffffffffffffffffffffff168473ffffffffffffffffffffffffffffffffffffffff16148061141b57508373ffffffffffffffffffffffffffffffffffffffff1661140384610670565b73ffffffffffffffffffffffffffffffffffffffff16145b8061142c575061142b8185610f2a565b5b91505092915050565b8273ffffffffffffffffffffffffffffffffffffffff1661145582610ad3565b73ffffffffffffffffffffffffffffffffffffffff16146114ab576040517f08c379a00000000000000000000000000000000000000000000000000000000081526004016114a290612907565b60405180910390fd5b600073ffffffffffffffffffffffffffffffffffffffff168273ffffffffffffffffffffffffffffffffffffffff16141561151b576040517f08c379a000000000000000000000000000000000000000000000000000000000815260040161151290612947565b60405180910390fd5b611526838383611c71565b61153160008261120c565b6001600360008573ffffffffffffffffffffffffffffffffffffffff1673ffffffffffffffffffffffffffffffffffffffff16815260200190815260200160002060008282546115819190612cd1565b925050819055506001600360008473ffffffffffffffffffffffffffffffffffffffff1673ffffffffffffffffffffffffffffffffffffffff16815260200190815260200160002060008282546115d89190612bf0565b92505081905550816002600083815260200190815260200160002060006101000a81548173ffffffffffffffffffffffffffffffffffffffff021916908373ffffffffffffffffffffffffffffffffffffffff160217905550808273ffffffffffffffffffffffffffffffffffffffff168473ffffffffffffffffffffffffffffffffffffffff167fddf252ad1be2c89b69c2b068fc378daa952ba7f163c4a11628f55a4df523b3ef60405160405180910390a4611697838383611c76565b505050565b600073ffffffffffffffffffffffffffffffffffffffff168173ffffffffffffffffffffffffffffffffffffffff16141561170c576040517f08c379a000000000000000000000000000000000000000000000000000000000815260040161170390612ac7565b60405180910390fd5b80600c60006101000a81548173ffffffffffffffffffffffffffffffffffffffff021916908373ffffffffffffffffffffffffffffffffffffffff16021790555050565b6000600760009054906101000a900473ffffffffffffffffffffffffffffffffffffffff16905081600760006101000a81548173ffffffffffffffffffffffffffffffffffffffff021916908373ffffffffffffffffffffffffffffffffffffffff1602179055508173ffffffffffffffffffffffffffffffffffffffff168173ffffffffffffffffffffffffffffffffffffffff167f8be0079c531659141344cd1fd0a4f28419497f9722a3daafe3b4186f6b6457e060405160405180910390a35050565b8173ffffffffffffffffffffffffffffffffffffffff168373ffffffffffffffffffffffffffffffffffffffff161415611885576040517f08c379a000000000000000000000000000000000000000000000000000000000815260040161187c90612967565b60405180910390fd5b80600560008573ffffffffffffffffffffffffffffffffffffffff1673ffffffffffffffffffffffffffffffffffffffff16815260200190815260200160002060008473ffffffffffffffffffffffffffffffffffffffff1673ffffffffffffffffffffffffffffffffffffffff16815260200190815260200160002060006101000a81548160ff0219169083151502179055508173ffffffffffffffffffffffffffffffffffffffff168373ffffffffffffffffffffffffffffffffffffffff167f17307eab39ab6107e8899845ad3d59bd9653f200f220920489ca2b5937696c3183604051611976919061288a565b60405180910390a3505050565b61198e848484611435565b61199a84848484611c7b565b6119d9576040517f08c379a00000000000000000000000000000000000000000000000000000000081526004016119d0906128c7565b60405180910390fd5b50505050565b606060405180606001604052806036815260200161353d60369139905090565b60606000821415611a47576040518060400160405280600181526020017f30000000000000000000000000000000000000000000000000000000000000008152509050611ba7565b600082905060005b60008214611a79578080611a6290612e1e565b915050600a82611a729190612c46565b9150611a4f565b60008167ffffffffffffffff811115611abb577f4e487b7100000000000000000000000000000000000000000000000000000000600052604160045260246000fd5b6040519080825280601f01601f191660200182016040528015611aed5781602001600182028036833780820191505090505b5090505b60008514611ba057600182611b069190612cd1565b9150600a85611b159190612e67565b6030611b219190612bf0565b60f81b818381518110611b5d577f4e487b7100000000000000000000000000000000000000000000000000000000600052603260045260246000fd5b60200101907effffffffffffffffffffffffffffffffffffffffffffffffffffffffffffff1916908160001a905350600a85611b999190612c46565b9450611af1565b8093505050505b919050565b60007f01ffc9a7000000000000000000000000000000000000000000000000000000007bffffffffffffffffffffffffffffffffffffffffffffffffffffffff1916827bffffffffffffffffffffffffffffffffffffffffffffffffffffffff1916149050919050565b611c208383611e12565b611c2d6000848484611c7b565b611c6c576040517f08c379a0000000000000000000000000000000000000000000000000000000008152600401611c63906128c7565b60405180910390fd5b505050565b505050565b505050565b6000611c9c8473ffffffffffffffffffffffffffffffffffffffff16611fec565b15611e05578373ffffffffffffffffffffffffffffffffffffffff1663150b7a02611cc5611204565b8786866040518563ffffffff1660e01b8152600401611ce79493929190612815565b602060405180830381600087803b158015611d0157600080fd5b505af1925050508015611d3257506040513d601f19601f82011682018060405250810190611d2f9190612353565b60015b611db5573d8060008114611d62576040519150601f19603f3d011682016040523d82523d6000602084013e611d67565b606091505b50600081511415611dad576040517f08c379a0000000000000000000000000000000000000000000000000000000008152600401611da4906128c7565b60405180910390fd5b805181602001fd5b63150b7a0260e01b7bffffffffffffffffffffffffffffffffffffffffffffffffffffffff1916817bffffffffffffffffffffffffffffffffffffffffffffffffffffffff191614915050611e0a565b600190505b949350505050565b600073ffffffffffffffffffffffffffffffffffffffff168273ffffffffffffffffffffffffffffffffffffffff161415611e82576040517f08c379a0000000000000000000000000000000000000000000000000000000008152600401611e7990612a27565b60405180910390fd5b611e8b81611198565b15611ecb576040517f08c379a0000000000000000000000000000000000000000000000000000000008152600401611ec290612927565b60405180910390fd5b611ed760008383611c71565b6001600360008473ffffffffffffffffffffffffffffffffffffffff1673ffffffffffffffffffffffffffffffffffffffff1681526020019081526020016000206000828254611f279190612bf0565b92505081905550816002600083815260200190815260200160002060006101000a81548173ffffffffffffffffffffffffffffffffffffffff021916908373ffffffffffffffffffffffffffffffffffffffff160217905550808273ffffffffffffffffffffffffffffffffffffffff16600073ffffffffffffffffffffffffffffffffffffffff167fddf252ad1be2c89b69c2b068fc378daa952ba7f163c4a11628f55a4df523b3ef60405160405180910390a4611fe860008383611c76565b5050565b6000808273ffffffffffffffffffffffffffffffffffffffff163b119050919050565b82805461201b90612dbb565b90600052602060002090601f01602090048101928261203d5760008555612084565b82601f1061205657805160ff1916838001178555612084565b82800160010185558215612084579182015b82811115612083578251825591602001919060010190612068565b5b5090506120919190612095565b5090565b5b808211156120ae576000816000905550600101612096565b5090565b60006120c56120c084612b67565b612b42565b9050828152602081018484840111156120dd57600080fd5b6120e8848285612d79565b509392505050565b6000813590506120ff816134aa565b92915050565b600081359050612114816134c1565b92915050565b600081359050612129816134d8565b92915050565b60008151905061213e816134d8565b92915050565b600082601f83011261215557600080fd5b81356121658482602086016120b2565b91505092915050565b60008135905061217d816134ef565b92915050565b60006020828403121561219557600080fd5b60006121a3848285016120f0565b91505092915050565b600080604083850312156121bf57600080fd5b60006121cd858286016120f0565b92505060206121de858286016120f0565b9150509250929050565b6000806000606084860312156121fd57600080fd5b600061220b868287016120f0565b935050602061221c868287016120f0565b925050604061222d8682870161216e565b9150509250925092565b6000806000806080858703121561224d57600080fd5b600061225b878288016120f0565b945050602061226c878288016120f0565b935050604061227d8782880161216e565b925050606085013567ffffffffffffffff81111561229a57600080fd5b6122a687828801612144565b91505092959194509250565b600080604083850312156122c557600080fd5b60006122d3858286016120f0565b92505060206122e485828601612105565b9150509250929050565b6000806040838503121561230157600080fd5b600061230f858286016120f0565b92505060206123208582860161216e565b9150509250929050565b60006020828403121561233c57600080fd5b600061234a8482850161211a565b91505092915050565b60006020828403121561236557600080fd5b60006123738482850161212f565b91505092915050565b60006020828403121561238e57600080fd5b600061239c8482850161216e565b91505092915050565b600080604083850312156123b857600080fd5b60006123c68582860161216e565b92505060206123d78582860161216e565b9150509250929050565b6123ea81612d05565b82525050565b6123f981612d17565b82525050565b600061240a82612bad565b6124148185612bc3565b9350612424818560208601612d88565b61242d81612f54565b840191505092915050565b600061244382612bb8565b61244d8185612bd4565b935061245d818560208601612d88565b61246681612f54565b840191505092915050565b600061247c82612bb8565b6124868185612be5565b9350612496818560208601612d88565b80840191505092915050565b600081546124af81612dbb565b6124b98186612be5565b945060018216600081146124d457600181146124e557612518565b60ff19831686528186019350612518565b6124ee85612b98565b60005b83811015612510578154818901526001820191506020810190506124f1565b838801955050505b50505092915050565b600061252e603283612bd4565b915061253982612f65565b604082019050919050565b6000612551602683612bd4565b915061255c82612fb4565b604082019050919050565b6000612574602583612bd4565b915061257f82613003565b604082019050919050565b6000612597601c83612bd4565b91506125a282613052565b602082019050919050565b60006125ba602483612bd4565b91506125c58261307b565b604082019050919050565b60006125dd601983612bd4565b91506125e8826130ca565b602082019050919050565b6000612600602c83612bd4565b915061260b826130f3565b604082019050919050565b6000612623603883612bd4565b915061262e82613142565b604082019050919050565b6000612646602a83612bd4565b915061265182613191565b604082019050919050565b6000612669602983612bd4565b9150612674826131e0565b604082019050919050565b600061268c602e83612bd4565b91506126978261322f565b604082019050919050565b60006126af602083612bd4565b91506126ba8261327e565b602082019050919050565b60006126d2602c83612bd4565b91506126dd826132a7565b604082019050919050565b60006126f5602083612bd4565b9150612700826132f6565b602082019050919050565b6000612718602f83612bd4565b91506127238261331f565b604082019050919050565b600061273b602183612bd4565b91506127468261336e565b604082019050919050565b600061275e602c83612bd4565b9150612769826133bd565b604082019050919050565b6000612781603183612bd4565b915061278c8261340c565b604082019050919050565b60006127a4602983612bd4565b91506127af8261345b565b604082019050919050565b6127c381612d6f565b82525050565b60006127d58286612471565b91506127e18285612471565b91506127ed82846124a2565b9150819050949350505050565b600060208201905061280f60008301846123e1565b92915050565b600060808201905061282a60008301876123e1565b61283760208301866123e1565b61284460408301856127ba565b818103606083015261285681846123ff565b905095945050505050565b600060408201905061287660008301856123e1565b61288360208301846127ba565b9392505050565b600060208201905061289f60008301846123f0565b92915050565b600060208201905081810360008301526128bf8184612438565b905092915050565b600060208201905081810360008301526128e081612521565b9050919050565b6000602082019050818103600083015261290081612544565b9050919050565b6000602082019050818103600083015261292081612567565b9050919050565b600060208201905081810360008301526129408161258a565b9050919050565b60006020820190508181036000830152612960816125ad565b9050919050565b60006020820190508181036000830152612980816125d0565b9050919050565b600060208201905081810360008301526129a0816125f3565b9050919050565b600060208201905081810360008301526129c081612616565b9050919050565b600060208201905081810360008301526129e081612639565b9050919050565b60006020820190508181036000830152612a008161265c565b9050919050565b60006020820190508181036000830152612a208161267f565b9050919050565b60006020820190508181036000830152612a40816126a2565b9050919050565b60006020820190508181036000830152612a60816126c5565b9050919050565b60006020820190508181036000830152612a80816126e8565b9050919050565b60006020820190508181036000830152612aa08161270b565b9050919050565b60006020820190508181036000830152612ac08161272e565b9050919050565b60006020820190508181036000830152612ae081612751565b9050919050565b60006020820190508181036000830152612b0081612774565b9050919050565b60006020820190508181036000830152612b2081612797565b9050919050565b6000602082019050612b3c60008301846127ba565b92915050565b6000612b4c612b5d565b9050612b588282612ded565b919050565b6000604051905090565b600067ffffffffffffffff821115612b8257612b81612f25565b5b612b8b82612f54565b9050602081019050919050565b60008190508160005260206000209050919050565b600081519050919050565b600081519050919050565b600082825260208201905092915050565b600082825260208201905092915050565b600081905092915050565b6000612bfb82612d6f565b9150612c0683612d6f565b9250827fffffffffffffffffffffffffffffffffffffffffffffffffffffffffffffffff03821115612c3b57612c3a612e98565b5b828201905092915050565b6000612c5182612d6f565b9150612c5c83612d6f565b925082612c6c57612c6b612ec7565b5b828204905092915050565b6000612c8282612d6f565b9150612c8d83612d6f565b9250817fffffffffffffffffffffffffffffffffffffffffffffffffffffffffffffffff0483118215151615612cc657612cc5612e98565b5b828202905092915050565b6000612cdc82612d6f565b9150612ce783612d6f565b925082821015612cfa57612cf9612e98565b5b828203905092915050565b6000612d1082612d4f565b9050919050565b60008115159050919050565b60007fffffffff0000000000000000000000000000000000000000000000000000000082169050919050565b600073ffffffffffffffffffffffffffffffffffffffff82169050919050565b6000819050919050565b82818337600083830152505050565b60005b83811015612da6578082015181840152602081019050612d8b565b83811115612db5576000848401525b50505050565b60006002820490506001821680612dd357607f821691505b60208210811415612de757612de6612ef6565b5b50919050565b612df682612f54565b810181811067ffffffffffffffff82111715612e1557612e14612f25565b5b80604052505050565b6000612e2982612d6f565b91507fffffffffffffffffffffffffffffffffffffffffffffffffffffffffffffffff821415612e5c57612e5b612e98565b5b600182019050919050565b6000612e7282612d6f565b9150612e7d83612d6f565b925082612e8d57612e8c612ec7565b5b828206905092915050565b7f4e487b7100000000000000000000000000000000000000000000000000000000600052601160045260246000fd5b7f4e487b7100000000000000000000000000000000000000000000000000000000600052601260045260246000fd5b7f4e487b7100000000000000000000000000000000000000000000000000000000600052602260045260246000fd5b7f4e487b7100000000000000000000000000000000000000000000000000000000600052604160045260246000fd5b6000601f19601f8301169050919050565b7f4552433732313a207472616e7366657220746f206e6f6e20455243373231526560008201527f63656976657220696d706c656d656e7465720000000000000000000000000000602082015250565b7f4f776e61626c653a206e6577206f776e657220697320746865207a65726f206160008201527f6464726573730000000000000000000000000000000000000000000000000000602082015250565b7f4552433732313a207472616e736665722066726f6d20696e636f72726563742060008201527f6f776e6572000000000000000000000000000000000000000000000000000000602082015250565b7f4552433732313a20746f6b656e20616c7265616479206d696e74656400000000600082015250565b7f4552433732313a207472616e7366657220746f20746865207a65726f2061646460008201527f7265737300000000000000000000000000000000000000000000000000000000602082015250565b7f4552433732313a20617070726f766520746f2063616c6c657200000000000000600082015250565b7f4552433732313a206f70657261746f7220717565727920666f72206e6f6e657860008201527f697374656e7420746f6b656e0000000000000000000000000000000000000000602082015250565b7f4552433732313a20617070726f76652063616c6c6572206973206e6f74206f7760008201527f6e6572206e6f7220617070726f76656420666f7220616c6c0000000000000000602082015250565b7f4552433732313a2062616c616e636520717565727920666f7220746865207a6560008201527f726f206164647265737300000000000000000000000000000000000000000000602082015250565b7f4552433732313a206f776e657220717565727920666f72206e6f6e657869737460008201527f656e7420746f6b656e0000000000000000000000000000000000000000000000602082015250565b7f45524337323155524953746f726167653a2055524920736574206f66206e6f6e60008201527f6578697374656e7420746f6b656e000000000000000000000000000000000000602082015250565b7f4552433732313a206d696e7420746f20746865207a65726f2061646472657373600082015250565b7f4552433732313a20617070726f76656420717565727920666f72206e6f6e657860008201527f697374656e7420746f6b656e0000000000000000000000000000000000000000602082015250565b7f4f776e61626c653a2063616c6c6572206973206e6f7420746865206f776e6572600082015250565b7f4552433732314d657461646174613a2055524920717565727920666f72206e6f60008201527f6e6578697374656e7420746f6b656e0000000000000000000000000000000000602082015250565b7f4552433732313a20617070726f76616c20746f2063757272656e74206f776e6560008201527f7200000000000000000000000000000000000000000000000000000000000000602082015250565b7f526f79616c746965733a206e657720726563697069656e74206973207468652060008201527f7a65726f20616464726573730000000000000000000000000000000000000000602082015250565b7f4552433732313a207472616e736665722063616c6c6572206973206e6f74206f60008201527f776e6572206e6f7220617070726f766564000000000000000000000000000000602082015250565b7f4d657461646174613a2055524920717565727920666f72206e6f6e657869737460008201527f656e7420746f6b656e0000000000000000000000000000000000000000000000602082015250565b6134b381612d05565b81146134be57600080fd5b50565b6134ca81612d17565b81146134d557600080fd5b50565b6134e181612d23565b81146134ec57600080fd5b50565b6134f881612d6f565b811461350357600080fd5b5056fe697066733a2f2f516d52515a4668594246586d43574e7161566374514c5954637a76506e597779577156547450714235527741704e2f697066733a2f2f516d4e6d424856484d4874386b765432567450446a5a36736a476a796a4a354c4273723144686e4c767a545a73732fa264697066735822122000b17a2aad5afaa6b5fa42274a1a74688aeb85593f37f9ccd7327e40f5b998e864736f6c63430008040033",
  "linkReferences": {},
  "deployedLinkReferences": {}
}