{
  "_format": "hh-sol-artifact-1",
  "contractName": "NFT",
  "sourceName": "src/backend/contracts/NFT.sol",
  "abi": [
    {
      "inputs": [],
      "stateMutability": "nonpayable",
      "type": "constructor"
    },
    {
      "anonymous": false,
      "inputs": [
        {
          "indexed": true,
          "internalType": "address",
          "name": "owner",
          "type": "address"
        },
        {
          "indexed": true,
          "internalType": "address",
          "name": "approved",
          "type": "address"
        },
        {
          "indexed": true,
          "internalType": "uint256",
          "name": "tokenId",
          "type": "uint256"
        }
      ],
      "name": "Approval",
      "type": "event"
    },
    {
      "anonymous": false,
      "inputs": [
        {
          "indexed": true,
          "internalType": "address",
          "name": "owner",
          "type": "address"
        },
        {
          "indexed": true,
          "internalType": "address",
          "name": "operator",
          "type": "address"
        },
        {
          "indexed": false,
          "internalType": "bool",
          "name": "approved",
          "type": "bool"
        }
      ],
      "name": "ApprovalForAll",
      "type": "event"
    },
    {
      "anonymous": false,
      "inputs": [
        {
          "indexed": true,
          "internalType": "address",
          "name": "previousOwner",
          "type": "address"
        },
        {
          "indexed": true,
          "internalType": "address",
          "name": "newOwner",
          "type": "address"
        }
      ],
      "name": "OwnershipTransferred",
      "type": "event"
    },
    {
      "anonymous": false,
      "inputs": [
        {
          "indexed": true,
          "internalType": "address",
          "name": "from",
          "type": "address"
        },
        {
          "indexed": true,
          "internalType": "address",
          "name": "to",
          "type": "address"
        },
        {
          "indexed": true,
          "internalType": "uint256",
          "name": "tokenId",
          "type": "uint256"
        }
      ],
      "name": "Transfer",
      "type": "event"
    },
    {
      "inputs": [
        {
          "internalType": "address",
          "name": "to",
          "type": "address"
        },
        {
          "internalType": "uint256",
          "name": "tokenId",
          "type": "uint256"
        }
      ],
      "name": "approve",
      "outputs": [],
      "stateMutability": "nonpayable",
      "type": "function"
    },
    {
      "inputs": [
        {
          "internalType": "address",
          "name": "owner",
          "type": "address"
        }
      ],
      "name": "balanceOf",
      "outputs": [
        {
          "internalType": "uint256",
          "name": "",
          "type": "uint256"
        }
      ],
      "stateMutability": "view",
      "type": "function"
    },
    {
      "inputs": [],
      "name": "contractURI",
      "outputs": [
        {
          "internalType": "string",
          "name": "",
          "type": "string"
        }
      ],
      "stateMutability": "view",
      "type": "function"
    },
    {
      "inputs": [
        {
          "internalType": "uint256",
          "name": "tokenId",
          "type": "uint256"
        }
      ],
      "name": "getApproved",
      "outputs": [
        {
          "internalType": "address",
          "name": "",
          "type": "address"
        }
      ],
      "stateMutability": "view",
      "type": "function"
    },
    {
      "inputs": [
        {
          "internalType": "address",
          "name": "owner",
          "type": "address"
        },
        {
          "internalType": "address",
          "name": "operator",
          "type": "address"
        }
      ],
      "name": "isApprovedForAll",
      "outputs": [
        {
          "internalType": "bool",
          "name": "",
          "type": "bool"
        }
      ],
      "stateMutability": "view",
      "type": "function"
    },
    {
      "inputs": [],
      "name": "mint",
      "outputs": [
        {
          "internalType": "uint256",
          "name": "",
          "type": "uint256"
        }
      ],
      "stateMutability": "nonpayable",
      "type": "function"
    },
    {
      "inputs": [],
      "name": "name",
      "outputs": [
        {
          "internalType": "string",
          "name": "",
          "type": "string"
        }
      ],
      "stateMutability": "view",
      "type": "function"
    },
    {
      "inputs": [],
      "name": "owner",
      "outputs": [
        {
          "internalType": "address",
          "name": "",
          "type": "address"
        }
      ],
      "stateMutability": "view",
      "type": "function"
    },
    {
      "inputs": [
        {
          "internalType": "uint256",
          "name": "tokenId",
          "type": "uint256"
        }
      ],
      "name": "ownerOf",
      "outputs": [
        {
          "internalType": "address",
          "name": "",
          "type": "address"
        }
      ],
      "stateMutability": "view",
      "type": "function"
    },
    {
      "inputs": [],
      "name": "renounceOwnership",
      "outputs": [],
      "stateMutability": "nonpayable",
      "type": "function"
    },
    {
      "inputs": [
        {
          "internalType": "uint256",
          "name": "_tokenId",
          "type": "uint256"
        },
        {
          "internalType": "uint256",
          "name": "_salePrice",
          "type": "uint256"
        }
      ],
      "name": "royaltyInfo",
      "outputs": [
        {
          "internalType": "address",
          "name": "receiver",
          "type": "address"
        },
        {
          "internalType": "uint256",
          "name": "royaltyAmount",
          "type": "uint256"
        }
      ],
      "stateMutability": "view",
      "type": "function"
    },
    {
      "inputs": [
        {
          "internalType": "address",
          "name": "from",
          "type": "address"
        },
        {
          "internalType": "address",
          "name": "to",
          "type": "address"
        },
        {
          "internalType": "uint256",
          "name": "tokenId",
          "type": "uint256"
        }
      ],
      "name": "safeTransferFrom",
      "outputs": [],
      "stateMutability": "nonpayable",
      "type": "function"
    },
    {
      "inputs": [
        {
          "internalType": "address",
          "name": "from",
          "type": "address"
        },
        {
          "internalType": "address",
          "name": "to",
          "type": "address"
        },
        {
          "internalType": "uint256",
          "name": "tokenId",
          "type": "uint256"
        },
        {
          "internalType": "bytes",
          "name": "_data",
          "type": "bytes"
        }
      ],
      "name": "safeTransferFrom",
      "outputs": [],
      "stateMutability": "nonpayable",
      "type": "function"
    },
    {
      "inputs": [
        {
          "internalType": "address",
          "name": "operator",
          "type": "address"
        },
        {
          "internalType": "bool",
          "name": "approved",
          "type": "bool"
        }
      ],
      "name": "setApprovalForAll",
      "outputs": [],
      "stateMutability": "nonpayable",
      "type": "function"
    },
    {
      "inputs": [
        {
          "internalType": "address",
          "name": "newRecipient",
          "type": "address"
        }
      ],
      "name": "setRoyalties",
      "outputs": [],
      "stateMutability": "nonpayable",
      "type": "function"
    },
    {
      "inputs": [
        {
          "internalType": "bytes4",
          "name": "interfaceId",
          "type": "bytes4"
        }
      ],
      "name": "supportsInterface",
      "outputs": [
        {
          "internalType": "bool",
          "name": "",
          "type": "bool"
        }
      ],
      "stateMutability": "view",
      "type": "function"
    },
    {
      "inputs": [],
      "name": "symbol",
      "outputs": [
        {
          "internalType": "string",
          "name": "",
          "type": "string"
        }
      ],
      "stateMutability": "view",
      "type": "function"
    },
    {
      "inputs": [],
      "name": "tokenCount",
      "outputs": [
        {
          "internalType": "uint256",
          "name": "",
          "type": "uint256"
        }
      ],
      "stateMutability": "view",
      "type": "function"
    },
    {
      "inputs": [
        {
          "internalType": "uint256",
          "name": "_tokenId",
          "type": "uint256"
        }
      ],
      "name": "tokenURI",
      "outputs": [
        {
          "internalType": "string",
          "name": "",
          "type": "string"
        }
      ],
      "stateMutability": "view",
      "type": "function"
    },
    {
      "inputs": [],
      "name": "total_supply",
      "outputs": [
        {
          "internalType": "uint256",
          "name": "",
          "type": "uint256"
        }
      ],
      "stateMutability": "view",
      "type": "function"
    },
    {
      "inputs": [
        {
          "internalType": "address",
          "name": "from",
          "type": "address"
        },
        {
          "internalType": "address",
          "name": "to",
          "type": "address"
        },
        {
          "internalType": "uint256",
          "name": "tokenId",
          "type": "uint256"
        }
      ],
      "name": "transferFrom",
      "outputs": [],
      "stateMutability": "nonpayable",
      "type": "function"
    },
    {
      "inputs": [
        {
          "internalType": "address",
          "name": "newOwner",
          "type": "address"
        }
      ],
      "name": "transferOwnership",
      "outputs": [],
      "stateMutability": "nonpayable",
      "type": "function"
    },
    {
      "inputs": [],
      "name": "uriPrefix",
      "outputs": [
        {
          "internalType": "string",
          "name": "",
          "type": "string"
        }
      ],
      "stateMutability": "view",
      "type": "function"
    },
    {
      "inputs": [],
      "name": "uriSuffix",
      "outputs": [
        {
          "internalType": "string",
          "name": "",
          "type": "string"
        }
      ],
      "stateMutability": "view",
      "type": "function"
    }
  ],
  "bytecode": "0x608060405260405180602001604052806000815250600890805190602001906200002b9291906200029f565b506040518060400160405280600581526020017f2e6a736f6e00000000000000000000000000000000000000000000000000000081525060099080519060200190620000799291906200029f565b503480156200008757600080fd5b506040518060400160405280600e81526020017f536b6f6f646c6520536b756c6c730000000000000000000000000000000000008152506040518060400160405280600381526020017f534b53000000000000000000000000000000000000000000000000000000000081525081600090805190602001906200010c9291906200029f565b508060019080519060200190620001259291906200029f565b505050620001486200013c620001a760201b60201c565b620001af60201b60201c565b610fa0600b81905550620001616200027560201b60201c565b600c60006101000a81548173ffffffffffffffffffffffffffffffffffffffff021916908373ffffffffffffffffffffffffffffffffffffffff160217905550620003b4565b600033905090565b6000600760009054906101000a900473ffffffffffffffffffffffffffffffffffffffff16905081600760006101000a81548173ffffffffffffffffffffffffffffffffffffffff021916908373ffffffffffffffffffffffffffffffffffffffff1602179055508173ffffffffffffffffffffffffffffffffffffffff168173ffffffffffffffffffffffffffffffffffffffff167f8be0079c531659141344cd1fd0a4f28419497f9722a3daafe3b4186f6b6457e060405160405180910390a35050565b6000600760009054906101000a900473ffffffffffffffffffffffffffffffffffffffff16905090565b828054620002ad906200034f565b90600052602060002090601f016020900481019282620002d157600085556200031d565b82601f10620002ec57805160ff19168380011785556200031d565b828001600101855582156200031d579182015b828111156200031c578251825591602001919060010190620002ff565b5b5090506200032c919062000330565b5090565b5b808211156200034b57600081600090555060010162000331565b5090565b600060028204905060018216806200036857607f821691505b602082108114156200037f576200037e62000385565b5b50919050565b7f4e487b7100000000000000000000000000000000000000000000000000000000600052602260045260246000fd5b61353680620003c46000396000f3fe608060405234801561001057600080fd5b50600436106101585760003560e01c80636352211e116100c3578063a22cb4651161007c578063a22cb465146103b8578063b88d4fde146103d4578063c87b56dd146103f0578063e8a3d48514610420578063e985e9c51461043e578063f2fde38b1461046e57610158565b80636352211e146102f457806370a0823114610324578063715018a6146103545780638da5cb5b1461035e57806395d89b411461037c5780639f181b5e1461039a57610158565b80632a55205a116101155780632a55205a146102315780632a9e63c6146102625780633940e9ee1461027e57806342842e0e1461029c5780635503a0e8146102b857806362b99ad4146102d657610158565b806301ffc9a71461015d57806306fdde031461018d578063081812fc146101ab578063095ea7b3146101db5780631249c58b146101f757806323b872dd14610215575b600080fd5b6101776004803603810190610172919061229e565b61048a565b60405161018491906127fe565b60405180910390f35b61019561056c565b6040516101a29190612819565b60405180910390f35b6101c560048036038101906101c091906122f0565b6105fe565b6040516101d2919061276e565b60405180910390f35b6101f560048036038101906101f09190612262565b610683565b005b6101ff61079b565b60405161020c9190612a9b565b60405180910390f35b61022f600480360381019061022a919061215c565b6107e1565b005b61024b60048036038101906102469190612319565b610841565b6040516102599291906127d5565b60405180910390f35b61027c600480360381019061027791906120f7565b61088c565b005b610286610914565b6040516102939190612a9b565b60405180910390f35b6102b660048036038101906102b1919061215c565b61091a565b005b6102c061093a565b6040516102cd9190612819565b60405180910390f35b6102de6109c8565b6040516102eb9190612819565b60405180910390f35b61030e600480360381019061030991906122f0565b610a56565b60405161031b919061276e565b60405180910390f35b61033e600480360381019061033991906120f7565b610b08565b60405161034b9190612a9b565b60405180910390f35b61035c610bc0565b005b610366610c48565b604051610373919061276e565b60405180910390f35b610384610c72565b6040516103919190612819565b60405180910390f35b6103a2610d04565b6040516103af9190612a9b565b60405180910390f35b6103d260048036038101906103cd9190612226565b610d0a565b005b6103ee60048036038101906103e991906121ab565b610d20565b005b61040a600480360381019061040591906122f0565b610d82565b6040516104179190612819565b60405180910390f35b610428610e7e565b6040516104359190612819565b60405180910390f35b61045860048036038101906104539190612120565b610e9e565b60405161046591906127fe565b60405180910390f35b610488600480360381019061048391906120f7565b610f32565b005b60007fc87b56dd000000000000000000000000000000000000000000000000000000007bffffffffffffffffffffffffffffffffffffffffffffffffffffffff1916827bffffffffffffffffffffffffffffffffffffffffffffffffffffffff1916148061055557507f2a55205a000000000000000000000000000000000000000000000000000000007bffffffffffffffffffffffffffffffffffffffffffffffffffffffff1916827bffffffffffffffffffffffffffffffffffffffffffffffffffffffff1916145b8061056557506105648261102a565b5b9050919050565b60606000805461057b90612d2f565b80601f01602080910402602001604051908101604052809291908181526020018280546105a790612d2f565b80156105f45780601f106105c9576101008083540402835291602001916105f4565b820191906000526020600020905b8154815290600101906020018083116105d757829003601f168201915b5050505050905090565b60006106098261110c565b610648576040517f08c379a000000000000000000000000000000000000000000000000000000000815260040161063f906129bb565b60405180910390fd5b6004600083815260200190815260200160002060009054906101000a900473ffffffffffffffffffffffffffffffffffffffff169050919050565b600061068e82610a56565b90508073ffffffffffffffffffffffffffffffffffffffff168373ffffffffffffffffffffffffffffffffffffffff1614156106ff576040517f08c379a00000000000000000000000000000000000000000000000000000000081526004016106f690612a1b565b60405180910390fd5b8073ffffffffffffffffffffffffffffffffffffffff1661071e611178565b73ffffffffffffffffffffffffffffffffffffffff16148061074d575061074c81610747611178565b610e9e565b5b61078c576040517f08c379a00000000000000000000000000000000000000000000000000000000081526004016107839061291b565b60405180910390fd5b6107968383611180565b505050565b60006001600a60008282546107b09190612b64565b925050819055506107c333600a54611239565b6107d9600a546107d4600a54610d82565b611257565b600a54905090565b6107f26107ec611178565b826112cb565b610831576040517f08c379a000000000000000000000000000000000000000000000000000000000815260040161082890612a5b565b60405180910390fd5b61083c8383836113a9565b505050565b600080600c60009054906101000a900473ffffffffffffffffffffffffffffffffffffffff1661271060fa856108779190612beb565b6108819190612bba565b915091509250929050565b610894611178565b73ffffffffffffffffffffffffffffffffffffffff166108b2610c48565b73ffffffffffffffffffffffffffffffffffffffff1614610908576040517f08c379a00000000000000000000000000000000000000000000000000000000081526004016108ff906129db565b60405180910390fd5b61091181611610565b50565b600b5481565b61093583838360405180602001604052806000815250610d20565b505050565b6009805461094790612d2f565b80601f016020809104026020016040519081016040528092919081815260200182805461097390612d2f565b80156109c05780601f10610995576101008083540402835291602001916109c0565b820191906000526020600020905b8154815290600101906020018083116109a357829003601f168201915b505050505081565b600880546109d590612d2f565b80601f0160208091040260200160405190810160405280929190818152602001828054610a0190612d2f565b8015610a4e5780601f10610a2357610100808354040283529160200191610a4e565b820191906000526020600020905b815481529060010190602001808311610a3157829003601f168201915b505050505081565b6000806002600084815260200190815260200160002060009054906101000a900473ffffffffffffffffffffffffffffffffffffffff169050600073ffffffffffffffffffffffffffffffffffffffff168173ffffffffffffffffffffffffffffffffffffffff161415610aff576040517f08c379a0000000000000000000000000000000000000000000000000000000008152600401610af69061295b565b60405180910390fd5b80915050919050565b60008073ffffffffffffffffffffffffffffffffffffffff168273ffffffffffffffffffffffffffffffffffffffff161415610b79576040517f08c379a0000000000000000000000000000000000000000000000000000000008152600401610b709061293b565b60405180910390fd5b600360008373ffffffffffffffffffffffffffffffffffffffff1673ffffffffffffffffffffffffffffffffffffffff168152602001908152602001600020549050919050565b610bc8611178565b73ffffffffffffffffffffffffffffffffffffffff16610be6610c48565b73ffffffffffffffffffffffffffffffffffffffff1614610c3c576040517f08c379a0000000000000000000000000000000000000000000000000000000008152600401610c33906129db565b60405180910390fd5b610c4660006116c4565b565b6000600760009054906101000a900473ffffffffffffffffffffffffffffffffffffffff16905090565b606060018054610c8190612d2f565b80601f0160208091040260200160405190810160405280929190818152602001828054610cad90612d2f565b8015610cfa5780601f10610ccf57610100808354040283529160200191610cfa565b820191906000526020600020905b815481529060010190602001808311610cdd57829003601f168201915b5050505050905090565b600a5481565b610d1c610d15611178565b838361178a565b5050565b610d31610d2b611178565b836112cb565b610d70576040517f08c379a0000000000000000000000000000000000000000000000000000000008152600401610d6790612a5b565b60405180910390fd5b610d7c848484846118f7565b50505050565b6060610d8d8261110c565b610dcc576040517f08c379a0000000000000000000000000000000000000000000000000000000008152600401610dc3906129fb565b60405180910390fd5b60018210158015610ddf5750600b548211155b610e1e576040517f08c379a0000000000000000000000000000000000000000000000000000000008152600401610e1590612a7b565b60405180910390fd5b6000610e28611953565b90506000815111610e485760405180602001604052806000815250610e76565b80610e5284611973565b6009604051602001610e669392919061273d565b6040516020818303038152906040525b915050919050565b60606040518060800160405280605081526020016134b160509139905090565b6000600560008473ffffffffffffffffffffffffffffffffffffffff1673ffffffffffffffffffffffffffffffffffffffff16815260200190815260200160002060008373ffffffffffffffffffffffffffffffffffffffff1673ffffffffffffffffffffffffffffffffffffffff16815260200190815260200160002060009054906101000a900460ff16905092915050565b610f3a611178565b73ffffffffffffffffffffffffffffffffffffffff16610f58610c48565b73ffffffffffffffffffffffffffffffffffffffff1614610fae576040517f08c379a0000000000000000000000000000000000000000000000000000000008152600401610fa5906129db565b60405180910390fd5b600073ffffffffffffffffffffffffffffffffffffffff168173ffffffffffffffffffffffffffffffffffffffff16141561101e576040517f08c379a00000000000000000000000000000000000000000000000000000000081526004016110159061285b565b60405180910390fd5b611027816116c4565b50565b60007f80ac58cd000000000000000000000000000000000000000000000000000000007bffffffffffffffffffffffffffffffffffffffffffffffffffffffff1916827bffffffffffffffffffffffffffffffffffffffffffffffffffffffff191614806110f557507f5b5e139f000000000000000000000000000000000000000000000000000000007bffffffffffffffffffffffffffffffffffffffffffffffffffffffff1916827bffffffffffffffffffffffffffffffffffffffffffffffffffffffff1916145b80611105575061110482611b20565b5b9050919050565b60008073ffffffffffffffffffffffffffffffffffffffff166002600084815260200190815260200160002060009054906101000a900473ffffffffffffffffffffffffffffffffffffffff1673ffffffffffffffffffffffffffffffffffffffff1614159050919050565b600033905090565b816004600083815260200190815260200160002060006101000a81548173ffffffffffffffffffffffffffffffffffffffff021916908373ffffffffffffffffffffffffffffffffffffffff160217905550808273ffffffffffffffffffffffffffffffffffffffff166111f383610a56565b73ffffffffffffffffffffffffffffffffffffffff167f8c5be1e5ebec7d5bd14f71427d1e84f3dd0314c0f7b2291e5b200ac8c7c3b92560405160405180910390a45050565b611253828260405180602001604052806000815250611b8a565b5050565b6112608261110c565b61129f576040517f08c379a00000000000000000000000000000000000000000000000000000000081526004016112969061297b565b60405180910390fd5b806006600084815260200190815260200160002090805190602001906112c6929190611f83565b505050565b60006112d68261110c565b611315576040517f08c379a000000000000000000000000000000000000000000000000000000000815260040161130c906128fb565b60405180910390fd5b600061132083610a56565b90508073ffffffffffffffffffffffffffffffffffffffff168473ffffffffffffffffffffffffffffffffffffffff16148061138f57508373ffffffffffffffffffffffffffffffffffffffff16611377846105fe565b73ffffffffffffffffffffffffffffffffffffffff16145b806113a0575061139f8185610e9e565b5b91505092915050565b8273ffffffffffffffffffffffffffffffffffffffff166113c982610a56565b73ffffffffffffffffffffffffffffffffffffffff161461141f576040517f08c379a00000000000000000000000000000000000000000000000000000000081526004016114169061287b565b60405180910390fd5b600073ffffffffffffffffffffffffffffffffffffffff168273ffffffffffffffffffffffffffffffffffffffff16141561148f576040517f08c379a0000000000000000000000000000000000000000000000000000000008152600401611486906128bb565b60405180910390fd5b61149a838383611be5565b6114a5600082611180565b6001600360008573ffffffffffffffffffffffffffffffffffffffff1673ffffffffffffffffffffffffffffffffffffffff16815260200190815260200160002060008282546114f59190612c45565b925050819055506001600360008473ffffffffffffffffffffffffffffffffffffffff1673ffffffffffffffffffffffffffffffffffffffff168152602001908152602001600020600082825461154c9190612b64565b92505081905550816002600083815260200190815260200160002060006101000a81548173ffffffffffffffffffffffffffffffffffffffff021916908373ffffffffffffffffffffffffffffffffffffffff160217905550808273ffffffffffffffffffffffffffffffffffffffff168473ffffffffffffffffffffffffffffffffffffffff167fddf252ad1be2c89b69c2b068fc378daa952ba7f163c4a11628f55a4df523b3ef60405160405180910390a461160b838383611bea565b505050565b600073ffffffffffffffffffffffffffffffffffffffff168173ffffffffffffffffffffffffffffffffffffffff161415611680576040517f08c379a000000000000000000000000000000000000000000000000000000000815260040161167790612a3b565b60405180910390fd5b80600c60006101000a81548173ffffffffffffffffffffffffffffffffffffffff021916908373ffffffffffffffffffffffffffffffffffffffff16021790555050565b6000600760009054906101000a900473ffffffffffffffffffffffffffffffffffffffff16905081600760006101000a81548173ffffffffffffffffffffffffffffffffffffffff021916908373ffffffffffffffffffffffffffffffffffffffff1602179055508173ffffffffffffffffffffffffffffffffffffffff168173ffffffffffffffffffffffffffffffffffffffff167f8be0079c531659141344cd1fd0a4f28419497f9722a3daafe3b4186f6b6457e060405160405180910390a35050565b8173ffffffffffffffffffffffffffffffffffffffff168373ffffffffffffffffffffffffffffffffffffffff1614156117f9576040517f08c379a00000000000000000000000000000000000000000000000000000000081526004016117f0906128db565b60405180910390fd5b80600560008573ffffffffffffffffffffffffffffffffffffffff1673ffffffffffffffffffffffffffffffffffffffff16815260200190815260200160002060008473ffffffffffffffffffffffffffffffffffffffff1673ffffffffffffffffffffffffffffffffffffffff16815260200190815260200160002060006101000a81548160ff0219169083151502179055508173ffffffffffffffffffffffffffffffffffffffff168373ffffffffffffffffffffffffffffffffffffffff167f17307eab39ab6107e8899845ad3d59bd9653f200f220920489ca2b5937696c31836040516118ea91906127fe565b60405180910390a3505050565b6119028484846113a9565b61190e84848484611bef565b61194d576040517f08c379a00000000000000000000000000000000000000000000000000000000081526004016119449061283b565b60405180910390fd5b50505050565b606060405180606001604052806036815260200161347b60369139905090565b606060008214156119bb576040518060400160405280600181526020017f30000000000000000000000000000000000000000000000000000000000000008152509050611b1b565b600082905060005b600082146119ed5780806119d690612d92565b915050600a826119e69190612bba565b91506119c3565b60008167ffffffffffffffff811115611a2f577f4e487b7100000000000000000000000000000000000000000000000000000000600052604160045260246000fd5b6040519080825280601f01601f191660200182016040528015611a615781602001600182028036833780820191505090505b5090505b60008514611b1457600182611a7a9190612c45565b9150600a85611a899190612ddb565b6030611a959190612b64565b60f81b818381518110611ad1577f4e487b7100000000000000000000000000000000000000000000000000000000600052603260045260246000fd5b60200101907effffffffffffffffffffffffffffffffffffffffffffffffffffffffffffff1916908160001a905350600a85611b0d9190612bba565b9450611a65565b8093505050505b919050565b60007f01ffc9a7000000000000000000000000000000000000000000000000000000007bffffffffffffffffffffffffffffffffffffffffffffffffffffffff1916827bffffffffffffffffffffffffffffffffffffffffffffffffffffffff1916149050919050565b611b948383611d86565b611ba16000848484611bef565b611be0576040517f08c379a0000000000000000000000000000000000000000000000000000000008152600401611bd79061283b565b60405180910390fd5b505050565b505050565b505050565b6000611c108473ffffffffffffffffffffffffffffffffffffffff16611f60565b15611d79578373ffffffffffffffffffffffffffffffffffffffff1663150b7a02611c39611178565b8786866040518563ffffffff1660e01b8152600401611c5b9493929190612789565b602060405180830381600087803b158015611c7557600080fd5b505af1925050508015611ca657506040513d601f19601f82011682018060405250810190611ca391906122c7565b60015b611d29573d8060008114611cd6576040519150601f19603f3d011682016040523d82523d6000602084013e611cdb565b606091505b50600081511415611d21576040517f08c379a0000000000000000000000000000000000000000000000000000000008152600401611d189061283b565b60405180910390fd5b805181602001fd5b63150b7a0260e01b7bffffffffffffffffffffffffffffffffffffffffffffffffffffffff1916817bffffffffffffffffffffffffffffffffffffffffffffffffffffffff191614915050611d7e565b600190505b949350505050565b600073ffffffffffffffffffffffffffffffffffffffff168273ffffffffffffffffffffffffffffffffffffffff161415611df6576040517f08c379a0000000000000000000000000000000000000000000000000000000008152600401611ded9061299b565b60405180910390fd5b611dff8161110c565b15611e3f576040517f08c379a0000000000000000000000000000000000000000000000000000000008152600401611e369061289b565b60405180910390fd5b611e4b60008383611be5565b6001600360008473ffffffffffffffffffffffffffffffffffffffff1673ffffffffffffffffffffffffffffffffffffffff1681526020019081526020016000206000828254611e9b9190612b64565b92505081905550816002600083815260200190815260200160002060006101000a81548173ffffffffffffffffffffffffffffffffffffffff021916908373ffffffffffffffffffffffffffffffffffffffff160217905550808273ffffffffffffffffffffffffffffffffffffffff16600073ffffffffffffffffffffffffffffffffffffffff167fddf252ad1be2c89b69c2b068fc378daa952ba7f163c4a11628f55a4df523b3ef60405160405180910390a4611f5c60008383611bea565b5050565b6000808273ffffffffffffffffffffffffffffffffffffffff163b119050919050565b828054611f8f90612d2f565b90600052602060002090601f016020900481019282611fb15760008555611ff8565b82601f10611fca57805160ff1916838001178555611ff8565b82800160010185558215611ff8579182015b82811115611ff7578251825591602001919060010190611fdc565b5b5090506120059190612009565b5090565b5b8082111561202257600081600090555060010161200a565b5090565b600061203961203484612adb565b612ab6565b90508281526020810184848401111561205157600080fd5b61205c848285612ced565b509392505050565b6000813590506120738161341e565b92915050565b60008135905061208881613435565b92915050565b60008135905061209d8161344c565b92915050565b6000815190506120b28161344c565b92915050565b600082601f8301126120c957600080fd5b81356120d9848260208601612026565b91505092915050565b6000813590506120f181613463565b92915050565b60006020828403121561210957600080fd5b600061211784828501612064565b91505092915050565b6000806040838503121561213357600080fd5b600061214185828601612064565b925050602061215285828601612064565b9150509250929050565b60008060006060848603121561217157600080fd5b600061217f86828701612064565b935050602061219086828701612064565b92505060406121a1868287016120e2565b9150509250925092565b600080600080608085870312156121c157600080fd5b60006121cf87828801612064565b94505060206121e087828801612064565b93505060406121f1878288016120e2565b925050606085013567ffffffffffffffff81111561220e57600080fd5b61221a878288016120b8565b91505092959194509250565b6000806040838503121561223957600080fd5b600061224785828601612064565b925050602061225885828601612079565b9150509250929050565b6000806040838503121561227557600080fd5b600061228385828601612064565b9250506020612294858286016120e2565b9150509250929050565b6000602082840312156122b057600080fd5b60006122be8482850161208e565b91505092915050565b6000602082840312156122d957600080fd5b60006122e7848285016120a3565b91505092915050565b60006020828403121561230257600080fd5b6000612310848285016120e2565b91505092915050565b6000806040838503121561232c57600080fd5b600061233a858286016120e2565b925050602061234b858286016120e2565b9150509250929050565b61235e81612c79565b82525050565b61236d81612c8b565b82525050565b600061237e82612b21565b6123888185612b37565b9350612398818560208601612cfc565b6123a181612ec8565b840191505092915050565b60006123b782612b2c565b6123c18185612b48565b93506123d1818560208601612cfc565b6123da81612ec8565b840191505092915050565b60006123f082612b2c565b6123fa8185612b59565b935061240a818560208601612cfc565b80840191505092915050565b6000815461242381612d2f565b61242d8186612b59565b9450600182166000811461244857600181146124595761248c565b60ff1983168652818601935061248c565b61246285612b0c565b60005b8381101561248457815481890152600182019150602081019050612465565b838801955050505b50505092915050565b60006124a2603283612b48565b91506124ad82612ed9565b604082019050919050565b60006124c5602683612b48565b91506124d082612f28565b604082019050919050565b60006124e8602583612b48565b91506124f382612f77565b604082019050919050565b600061250b601c83612b48565b915061251682612fc6565b602082019050919050565b600061252e602483612b48565b915061253982612fef565b604082019050919050565b6000612551601983612b48565b915061255c8261303e565b602082019050919050565b6000612574602c83612b48565b915061257f82613067565b604082019050919050565b6000612597603883612b48565b91506125a2826130b6565b604082019050919050565b60006125ba602a83612b48565b91506125c582613105565b604082019050919050565b60006125dd602983612b48565b91506125e882613154565b604082019050919050565b6000612600602e83612b48565b915061260b826131a3565b604082019050919050565b6000612623602083612b48565b915061262e826131f2565b602082019050919050565b6000612646602c83612b48565b91506126518261321b565b604082019050919050565b6000612669602083612b48565b91506126748261326a565b602082019050919050565b600061268c602f83612b48565b915061269782613293565b604082019050919050565b60006126af602183612b48565b91506126ba826132e2565b604082019050919050565b60006126d2602c83612b48565b91506126dd82613331565b604082019050919050565b60006126f5603183612b48565b915061270082613380565b604082019050919050565b6000612718602983612b48565b9150612723826133cf565b604082019050919050565b61273781612ce3565b82525050565b600061274982866123e5565b915061275582856123e5565b91506127618284612416565b9150819050949350505050565b60006020820190506127836000830184612355565b92915050565b600060808201905061279e6000830187612355565b6127ab6020830186612355565b6127b8604083018561272e565b81810360608301526127ca8184612373565b905095945050505050565b60006040820190506127ea6000830185612355565b6127f7602083018461272e565b9392505050565b60006020820190506128136000830184612364565b92915050565b6000602082019050818103600083015261283381846123ac565b905092915050565b6000602082019050818103600083015261285481612495565b9050919050565b60006020820190508181036000830152612874816124b8565b9050919050565b60006020820190508181036000830152612894816124db565b9050919050565b600060208201905081810360008301526128b4816124fe565b9050919050565b600060208201905081810360008301526128d481612521565b9050919050565b600060208201905081810360008301526128f481612544565b9050919050565b6000602082019050818103600083015261291481612567565b9050919050565b600060208201905081810360008301526129348161258a565b9050919050565b60006020820190508181036000830152612954816125ad565b9050919050565b60006020820190508181036000830152612974816125d0565b9050919050565b60006020820190508181036000830152612994816125f3565b9050919050565b600060208201905081810360008301526129b481612616565b9050919050565b600060208201905081810360008301526129d481612639565b9050919050565b600060208201905081810360008301526129f48161265c565b9050919050565b60006020820190508181036000830152612a148161267f565b9050919050565b60006020820190508181036000830152612a34816126a2565b9050919050565b60006020820190508181036000830152612a54816126c5565b9050919050565b60006020820190508181036000830152612a74816126e8565b9050919050565b60006020820190508181036000830152612a948161270b565b9050919050565b6000602082019050612ab0600083018461272e565b92915050565b6000612ac0612ad1565b9050612acc8282612d61565b919050565b6000604051905090565b600067ffffffffffffffff821115612af657612af5612e99565b5b612aff82612ec8565b9050602081019050919050565b60008190508160005260206000209050919050565b600081519050919050565b600081519050919050565b600082825260208201905092915050565b600082825260208201905092915050565b600081905092915050565b6000612b6f82612ce3565b9150612b7a83612ce3565b9250827fffffffffffffffffffffffffffffffffffffffffffffffffffffffffffffffff03821115612baf57612bae612e0c565b5b828201905092915050565b6000612bc582612ce3565b9150612bd083612ce3565b925082612be057612bdf612e3b565b5b828204905092915050565b6000612bf682612ce3565b9150612c0183612ce3565b9250817fffffffffffffffffffffffffffffffffffffffffffffffffffffffffffffffff0483118215151615612c3a57612c39612e0c565b5b828202905092915050565b6000612c5082612ce3565b9150612c5b83612ce3565b925082821015612c6e57612c6d612e0c565b5b828203905092915050565b6000612c8482612cc3565b9050919050565b60008115159050919050565b60007fffffffff0000000000000000000000000000000000000000000000000000000082169050919050565b600073ffffffffffffffffffffffffffffffffffffffff82169050919050565b6000819050919050565b82818337600083830152505050565b60005b83811015612d1a578082015181840152602081019050612cff565b83811115612d29576000848401525b50505050565b60006002820490506001821680612d4757607f821691505b60208210811415612d5b57612d5a612e6a565b5b50919050565b612d6a82612ec8565b810181811067ffffffffffffffff82111715612d8957612d88612e99565b5b80604052505050565b6000612d9d82612ce3565b91507fffffffffffffffffffffffffffffffffffffffffffffffffffffffffffffffff821415612dd057612dcf612e0c565b5b600182019050919050565b6000612de682612ce3565b9150612df183612ce3565b925082612e0157612e00612e3b565b5b828206905092915050565b7f4e487b7100000000000000000000000000000000000000000000000000000000600052601160045260246000fd5b7f4e487b7100000000000000000000000000000000000000000000000000000000600052601260045260246000fd5b7f4e487b7100000000000000000000000000000000000000000000000000000000600052602260045260246000fd5b7f4e487b7100000000000000000000000000000000000000000000000000000000600052604160045260246000fd5b6000601f19601f8301169050919050565b7f4552433732313a207472616e7366657220746f206e6f6e20455243373231526560008201527f63656976657220696d706c656d656e7465720000000000000000000000000000602082015250565b7f4f776e61626c653a206e6577206f776e657220697320746865207a65726f206160008201527f6464726573730000000000000000000000000000000000000000000000000000602082015250565b7f4552433732313a207472616e736665722066726f6d20696e636f72726563742060008201527f6f776e6572000000000000000000000000000000000000000000000000000000602082015250565b7f4552433732313a20746f6b656e20616c7265616479206d696e74656400000000600082015250565b7f4552433732313a207472616e7366657220746f20746865207a65726f2061646460008201527f7265737300000000000000000000000000000000000000000000000000000000602082015250565b7f4552433732313a20617070726f766520746f2063616c6c657200000000000000600082015250565b7f4552433732313a206f70657261746f7220717565727920666f72206e6f6e657860008201527f697374656e7420746f6b656e0000000000000000000000000000000000000000602082015250565b7f4552433732313a20617070726f76652063616c6c6572206973206e6f74206f7760008201527f6e6572206e6f7220617070726f76656420666f7220616c6c0000000000000000602082015250565b7f4552433732313a2062616c616e636520717565727920666f7220746865207a6560008201527f726f206164647265737300000000000000000000000000000000000000000000602082015250565b7f4552433732313a206f776e657220717565727920666f72206e6f6e657869737460008201527f656e7420746f6b656e0000000000000000000000000000000000000000000000602082015250565b7f45524337323155524953746f726167653a2055524920736574206f66206e6f6e60008201527f6578697374656e7420746f6b656e000000000000000000000000000000000000602082015250565b7f4552433732313a206d696e7420746f20746865207a65726f2061646472657373600082015250565b7f4552433732313a20617070726f76656420717565727920666f72206e6f6e657860008201527f697374656e7420746f6b656e0000000000000000000000000000000000000000602082015250565b7f4f776e61626c653a2063616c6c6572206973206e6f7420746865206f776e6572600082015250565b7f4552433732314d657461646174613a2055524920717565727920666f72206e6f60008201527f6e6578697374656e7420746f6b656e0000000000000000000000000000000000602082015250565b7f4552433732313a20617070726f76616c20746f2063757272656e74206f776e6560008201527f7200000000000000000000000000000000000000000000000000000000000000602082015250565b7f526f79616c746965733a206e657720726563697069656e74206973207468652060008201527f7a65726f20616464726573730000000000000000000000000000000000000000602082015250565b7f4552433732313a207472616e736665722063616c6c6572206973206e6f74206f60008201527f776e6572206e6f7220617070726f766564000000000000000000000000000000602082015250565b7f4d657461646174613a2055524920717565727920666f72206e6f6e657869737460008201527f656e7420746f6b656e0000000000000000000000000000000000000000000000602082015250565b61342781612c79565b811461343257600080fd5b50565b61343e81612c8b565b811461344957600080fd5b50565b61345581612c97565b811461346057600080fd5b50565b61346c81612ce3565b811461347757600080fd5b5056fe697066733a2f2f516d5a5277335956703831776141436339414d673363376276653355344c5a454250346f4457656e6552526e33442f68747470733a2f2f676174657761792e70696e6174612e636c6f75642f697066732f516d52336367624a77366a7a62655234537639636d4d70534c6a61396b7665324e5934757a6e6f4c346833453141a2646970667358221220d1778a77f3064fa9f92f961e42bdffd0f9ad972d96a2a2ecdf537b5b45f6a12364736f6c63430008040033",
  "linkReferences": {},
  "deployedLinkReferences": {}
}