{
  "_format": "hh-sol-artifact-1",
  "contractName": "NFT",
  "sourceName": "src/backend/contracts/NFT.sol",
  "abi": [
    {
      "inputs": [],
      "stateMutability": "nonpayable",
      "type": "constructor"
    },
    {
      "anonymous": false,
      "inputs": [
        {
          "indexed": true,
          "internalType": "address",
          "name": "owner",
          "type": "address"
        },
        {
          "indexed": true,
          "internalType": "address",
          "name": "approved",
          "type": "address"
        },
        {
          "indexed": true,
          "internalType": "uint256",
          "name": "tokenId",
          "type": "uint256"
        }
      ],
      "name": "Approval",
      "type": "event"
    },
    {
      "anonymous": false,
      "inputs": [
        {
          "indexed": true,
          "internalType": "address",
          "name": "owner",
          "type": "address"
        },
        {
          "indexed": true,
          "internalType": "address",
          "name": "operator",
          "type": "address"
        },
        {
          "indexed": false,
          "internalType": "bool",
          "name": "approved",
          "type": "bool"
        }
      ],
      "name": "ApprovalForAll",
      "type": "event"
    },
    {
      "anonymous": false,
      "inputs": [
        {
          "indexed": true,
          "internalType": "address",
          "name": "from",
          "type": "address"
        },
        {
          "indexed": true,
          "internalType": "address",
          "name": "to",
          "type": "address"
        },
        {
          "indexed": true,
          "internalType": "uint256",
          "name": "tokenId",
          "type": "uint256"
        }
      ],
      "name": "Transfer",
      "type": "event"
    },
    {
      "inputs": [
        {
          "internalType": "address",
          "name": "to",
          "type": "address"
        },
        {
          "internalType": "uint256",
          "name": "tokenId",
          "type": "uint256"
        }
      ],
      "name": "approve",
      "outputs": [],
      "stateMutability": "nonpayable",
      "type": "function"
    },
    {
      "inputs": [
        {
          "internalType": "address",
          "name": "owner",
          "type": "address"
        }
      ],
      "name": "balanceOf",
      "outputs": [
        {
          "internalType": "uint256",
          "name": "",
          "type": "uint256"
        }
      ],
      "stateMutability": "view",
      "type": "function"
    },
    {
      "inputs": [
        {
          "internalType": "uint256",
          "name": "tokenId",
          "type": "uint256"
        }
      ],
      "name": "getApproved",
      "outputs": [
        {
          "internalType": "address",
          "name": "",
          "type": "address"
        }
      ],
      "stateMutability": "view",
      "type": "function"
    },
    {
      "inputs": [
        {
          "internalType": "address",
          "name": "owner",
          "type": "address"
        },
        {
          "internalType": "address",
          "name": "operator",
          "type": "address"
        }
      ],
      "name": "isApprovedForAll",
      "outputs": [
        {
          "internalType": "bool",
          "name": "",
          "type": "bool"
        }
      ],
      "stateMutability": "view",
      "type": "function"
    },
    {
      "inputs": [
        {
          "internalType": "string",
          "name": "_tokenURI",
          "type": "string"
        }
      ],
      "name": "mint",
      "outputs": [
        {
          "internalType": "uint256",
          "name": "",
          "type": "uint256"
        }
      ],
      "stateMutability": "nonpayable",
      "type": "function"
    },
    {
      "inputs": [],
      "name": "name",
      "outputs": [
        {
          "internalType": "string",
          "name": "",
          "type": "string"
        }
      ],
      "stateMutability": "view",
      "type": "function"
    },
    {
      "inputs": [
        {
          "internalType": "uint256",
          "name": "tokenId",
          "type": "uint256"
        }
      ],
      "name": "ownerOf",
      "outputs": [
        {
          "internalType": "address",
          "name": "",
          "type": "address"
        }
      ],
      "stateMutability": "view",
      "type": "function"
    },
    {
      "inputs": [
        {
          "internalType": "address",
          "name": "from",
          "type": "address"
        },
        {
          "internalType": "address",
          "name": "to",
          "type": "address"
        },
        {
          "internalType": "uint256",
          "name": "tokenId",
          "type": "uint256"
        }
      ],
      "name": "safeTransferFrom",
      "outputs": [],
      "stateMutability": "nonpayable",
      "type": "function"
    },
    {
      "inputs": [
        {
          "internalType": "address",
          "name": "from",
          "type": "address"
        },
        {
          "internalType": "address",
          "name": "to",
          "type": "address"
        },
        {
          "internalType": "uint256",
          "name": "tokenId",
          "type": "uint256"
        },
        {
          "internalType": "bytes",
          "name": "_data",
          "type": "bytes"
        }
      ],
      "name": "safeTransferFrom",
      "outputs": [],
      "stateMutability": "nonpayable",
      "type": "function"
    },
    {
      "inputs": [
        {
          "internalType": "address",
          "name": "operator",
          "type": "address"
        },
        {
          "internalType": "bool",
          "name": "approved",
          "type": "bool"
        }
      ],
      "name": "setApprovalForAll",
      "outputs": [],
      "stateMutability": "nonpayable",
      "type": "function"
    },
    {
      "inputs": [
        {
          "internalType": "bytes4",
          "name": "interfaceId",
          "type": "bytes4"
        }
      ],
      "name": "supportsInterface",
      "outputs": [
        {
          "internalType": "bool",
          "name": "",
          "type": "bool"
        }
      ],
      "stateMutability": "view",
      "type": "function"
    },
    {
      "inputs": [],
      "name": "symbol",
      "outputs": [
        {
          "internalType": "string",
          "name": "",
          "type": "string"
        }
      ],
      "stateMutability": "view",
      "type": "function"
    },
    {
      "inputs": [],
      "name": "tokenCount",
      "outputs": [
        {
          "internalType": "uint256",
          "name": "",
          "type": "uint256"
        }
      ],
      "stateMutability": "view",
      "type": "function"
    },
    {
      "inputs": [
        {
          "internalType": "uint256",
          "name": "_tokenId",
          "type": "uint256"
        }
      ],
      "name": "tokenURI",
      "outputs": [
        {
          "internalType": "string",
          "name": "",
          "type": "string"
        }
      ],
      "stateMutability": "view",
      "type": "function"
    },
    {
      "inputs": [
        {
          "internalType": "address",
          "name": "from",
          "type": "address"
        },
        {
          "internalType": "address",
          "name": "to",
          "type": "address"
        },
        {
          "internalType": "uint256",
          "name": "tokenId",
          "type": "uint256"
        }
      ],
      "name": "transferFrom",
      "outputs": [],
      "stateMutability": "nonpayable",
      "type": "function"
    },
    {
      "inputs": [],
      "name": "uriPrefix",
      "outputs": [
        {
          "internalType": "string",
          "name": "",
          "type": "string"
        }
      ],
      "stateMutability": "view",
      "type": "function"
    },
    {
      "inputs": [],
      "name": "uriSuffix",
      "outputs": [
        {
          "internalType": "string",
          "name": "",
          "type": "string"
        }
      ],
      "stateMutability": "view",
      "type": "function"
    }
  ],
  "bytecode": "0x608060405260405180602001604052806000815250600790805190602001906200002b9291906200012e565b506040518060400160405280600581526020017f2e6a736f6e00000000000000000000000000000000000000000000000000000081525060089080519060200190620000799291906200012e565b503480156200008757600080fd5b506040518060400160405280600e81526020017f536b6f6f646c6520536b756c6c730000000000000000000000000000000000008152506040518060400160405280600381526020017f534b53000000000000000000000000000000000000000000000000000000000081525081600090805190602001906200010c9291906200012e565b508060019080519060200190620001259291906200012e565b50505062000243565b8280546200013c90620001de565b90600052602060002090601f016020900481019282620001605760008555620001ac565b82601f106200017b57805160ff1916838001178555620001ac565b82800160010185558215620001ac579182015b82811115620001ab5782518255916020019190600101906200018e565b5b509050620001bb9190620001bf565b5090565b5b80821115620001da576000816000905550600101620001c0565b5090565b60006002820490506001821680620001f757607f821691505b602082108114156200020e576200020d62000214565b5b50919050565b7f4e487b7100000000000000000000000000000000000000000000000000000000600052602260045260246000fd5b612c3f80620002536000396000f3fe608060405234801561001057600080fd5b506004361061010b5760003560e01c80636352211e116100a2578063a22cb46511610071578063a22cb465146102ba578063b88d4fde146102d6578063c87b56dd146102f2578063d85d3d2714610322578063e985e9c5146103525761010b565b80636352211e1461021e57806370a082311461024e57806395d89b411461027e5780639f181b5e1461029c5761010b565b806323b872dd116100de57806323b872dd146101aa57806342842e0e146101c65780635503a0e8146101e257806362b99ad4146102005761010b565b806301ffc9a71461011057806306fdde0314610140578063081812fc1461015e578063095ea7b31461018e575b600080fd5b61012a60048036038101906101259190611c9c565b610382565b604051610137919061214c565b60405180910390f35b610148610464565b6040516101559190612167565b60405180910390f35b61017860048036038101906101739190611d2f565b6104f6565b60405161018591906120e5565b60405180910390f35b6101a860048036038101906101a39190611c60565b61057b565b005b6101c460048036038101906101bf9190611b5a565b610693565b005b6101e060048036038101906101db9190611b5a565b6106f3565b005b6101ea610713565b6040516101f79190612167565b60405180910390f35b6102086107a1565b6040516102159190612167565b60405180910390f35b61023860048036038101906102339190611d2f565b61082f565b60405161024591906120e5565b60405180910390f35b61026860048036038101906102639190611af5565b6108e1565b6040516102759190612369565b60405180910390f35b610286610999565b6040516102939190612167565b60405180910390f35b6102a4610a2b565b6040516102b19190612369565b60405180910390f35b6102d460048036038101906102cf9190611c24565b610a31565b005b6102f060048036038101906102eb9190611ba9565b610a47565b005b61030c60048036038101906103079190611d2f565b610aa9565b6040516103199190612167565b60405180910390f35b61033c60048036038101906103379190611cee565b610b53565b6040516103499190612369565b60405180910390f35b61036c60048036038101906103679190611b1e565b610b91565b604051610379919061214c565b60405180910390f35b60007f80ac58cd000000000000000000000000000000000000000000000000000000007bffffffffffffffffffffffffffffffffffffffffffffffffffffffff1916827bffffffffffffffffffffffffffffffffffffffffffffffffffffffff1916148061044d57507f5b5e139f000000000000000000000000000000000000000000000000000000007bffffffffffffffffffffffffffffffffffffffffffffffffffffffff1916827bffffffffffffffffffffffffffffffffffffffffffffffffffffffff1916145b8061045d575061045c82610c25565b5b9050919050565b606060008054610473906125d4565b80601f016020809104026020016040519081016040528092919081815260200182805461049f906125d4565b80156104ec5780601f106104c1576101008083540402835291602001916104ec565b820191906000526020600020905b8154815290600101906020018083116104cf57829003601f168201915b5050505050905090565b600061050182610c8f565b610540576040517f08c379a0000000000000000000000000000000000000000000000000000000008152600401610537906122e9565b60405180910390fd5b6004600083815260200190815260200160002060009054906101000a900473ffffffffffffffffffffffffffffffffffffffff169050919050565b60006105868261082f565b90508073ffffffffffffffffffffffffffffffffffffffff168373ffffffffffffffffffffffffffffffffffffffff1614156105f7576040517f08c379a00000000000000000000000000000000000000000000000000000000081526004016105ee90612329565b60405180910390fd5b8073ffffffffffffffffffffffffffffffffffffffff16610616610cfb565b73ffffffffffffffffffffffffffffffffffffffff16148061064557506106448161063f610cfb565b610b91565b5b610684576040517f08c379a000000000000000000000000000000000000000000000000000000000815260040161067b90612249565b60405180910390fd5b61068e8383610d03565b505050565b6106a461069e610cfb565b82610dbc565b6106e3576040517f08c379a00000000000000000000000000000000000000000000000000000000081526004016106da90612349565b60405180910390fd5b6106ee838383610e9a565b505050565b61070e83838360405180602001604052806000815250610a47565b505050565b60088054610720906125d4565b80601f016020809104026020016040519081016040528092919081815260200182805461074c906125d4565b80156107995780601f1061076e57610100808354040283529160200191610799565b820191906000526020600020905b81548152906001019060200180831161077c57829003601f168201915b505050505081565b600780546107ae906125d4565b80601f01602080910402602001604051908101604052809291908181526020018280546107da906125d4565b80156108275780601f106107fc57610100808354040283529160200191610827565b820191906000526020600020905b81548152906001019060200180831161080a57829003601f168201915b505050505081565b6000806002600084815260200190815260200160002060009054906101000a900473ffffffffffffffffffffffffffffffffffffffff169050600073ffffffffffffffffffffffffffffffffffffffff168173ffffffffffffffffffffffffffffffffffffffff1614156108d8576040517f08c379a00000000000000000000000000000000000000000000000000000000081526004016108cf90612289565b60405180910390fd5b80915050919050565b60008073ffffffffffffffffffffffffffffffffffffffff168273ffffffffffffffffffffffffffffffffffffffff161415610952576040517f08c379a000000000000000000000000000000000000000000000000000000000815260040161094990612269565b60405180910390fd5b600360008373ffffffffffffffffffffffffffffffffffffffff1673ffffffffffffffffffffffffffffffffffffffff168152602001908152602001600020549050919050565b6060600180546109a8906125d4565b80601f01602080910402602001604051908101604052809291908181526020018280546109d4906125d4565b8015610a215780601f106109f657610100808354040283529160200191610a21565b820191906000526020600020905b815481529060010190602001808311610a0457829003601f168201915b5050505050905090565b60095481565b610a43610a3c610cfb565b8383611101565b5050565b610a58610a52610cfb565b83610dbc565b610a97576040517f08c379a0000000000000000000000000000000000000000000000000000000008152600401610a8e90612349565b60405180910390fd5b610aa38484848461126e565b50505050565b6060610ab482610c8f565b610af3576040517f08c379a0000000000000000000000000000000000000000000000000000000008152600401610aea90612309565b60405180910390fd5b6000610afd6112ca565b90506000815111610b1d5760405180602001604052806000815250610b4b565b80610b27846112e1565b6008604051602001610b3b939291906120b4565b6040516020818303038152906040525b915050919050565b6000600160096000828254610b689190612463565b92505081905550610b7b3360095461148e565b610b87600954836114ac565b6009549050919050565b6000600560008473ffffffffffffffffffffffffffffffffffffffff1673ffffffffffffffffffffffffffffffffffffffff16815260200190815260200160002060008373ffffffffffffffffffffffffffffffffffffffff1673ffffffffffffffffffffffffffffffffffffffff16815260200190815260200160002060009054906101000a900460ff16905092915050565b60007f01ffc9a7000000000000000000000000000000000000000000000000000000007bffffffffffffffffffffffffffffffffffffffffffffffffffffffff1916827bffffffffffffffffffffffffffffffffffffffffffffffffffffffff1916149050919050565b60008073ffffffffffffffffffffffffffffffffffffffff166002600084815260200190815260200160002060009054906101000a900473ffffffffffffffffffffffffffffffffffffffff1673ffffffffffffffffffffffffffffffffffffffff1614159050919050565b600033905090565b816004600083815260200190815260200160002060006101000a81548173ffffffffffffffffffffffffffffffffffffffff021916908373ffffffffffffffffffffffffffffffffffffffff160217905550808273ffffffffffffffffffffffffffffffffffffffff16610d768361082f565b73ffffffffffffffffffffffffffffffffffffffff167f8c5be1e5ebec7d5bd14f71427d1e84f3dd0314c0f7b2291e5b200ac8c7c3b92560405160405180910390a45050565b6000610dc782610c8f565b610e06576040517f08c379a0000000000000000000000000000000000000000000000000000000008152600401610dfd90612229565b60405180910390fd5b6000610e118361082f565b90508073ffffffffffffffffffffffffffffffffffffffff168473ffffffffffffffffffffffffffffffffffffffff161480610e8057508373ffffffffffffffffffffffffffffffffffffffff16610e68846104f6565b73ffffffffffffffffffffffffffffffffffffffff16145b80610e915750610e908185610b91565b5b91505092915050565b8273ffffffffffffffffffffffffffffffffffffffff16610eba8261082f565b73ffffffffffffffffffffffffffffffffffffffff1614610f10576040517f08c379a0000000000000000000000000000000000000000000000000000000008152600401610f07906121a9565b60405180910390fd5b600073ffffffffffffffffffffffffffffffffffffffff168273ffffffffffffffffffffffffffffffffffffffff161415610f80576040517f08c379a0000000000000000000000000000000000000000000000000000000008152600401610f77906121e9565b60405180910390fd5b610f8b838383611520565b610f96600082610d03565b6001600360008573ffffffffffffffffffffffffffffffffffffffff1673ffffffffffffffffffffffffffffffffffffffff1681526020019081526020016000206000828254610fe691906124ea565b925050819055506001600360008473ffffffffffffffffffffffffffffffffffffffff1673ffffffffffffffffffffffffffffffffffffffff168152602001908152602001600020600082825461103d9190612463565b92505081905550816002600083815260200190815260200160002060006101000a81548173ffffffffffffffffffffffffffffffffffffffff021916908373ffffffffffffffffffffffffffffffffffffffff160217905550808273ffffffffffffffffffffffffffffffffffffffff168473ffffffffffffffffffffffffffffffffffffffff167fddf252ad1be2c89b69c2b068fc378daa952ba7f163c4a11628f55a4df523b3ef60405160405180910390a46110fc838383611525565b505050565b8173ffffffffffffffffffffffffffffffffffffffff168373ffffffffffffffffffffffffffffffffffffffff161415611170576040517f08c379a000000000000000000000000000000000000000000000000000000000815260040161116790612209565b60405180910390fd5b80600560008573ffffffffffffffffffffffffffffffffffffffff1673ffffffffffffffffffffffffffffffffffffffff16815260200190815260200160002060008473ffffffffffffffffffffffffffffffffffffffff1673ffffffffffffffffffffffffffffffffffffffff16815260200190815260200160002060006101000a81548160ff0219169083151502179055508173ffffffffffffffffffffffffffffffffffffffff168373ffffffffffffffffffffffffffffffffffffffff167f17307eab39ab6107e8899845ad3d59bd9653f200f220920489ca2b5937696c3183604051611261919061214c565b60405180910390a3505050565b611279848484610e9a565b6112858484848461152a565b6112c4576040517f08c379a00000000000000000000000000000000000000000000000000000000081526004016112bb90612189565b60405180910390fd5b50505050565b606060405180602001604052806000815250905090565b60606000821415611329576040518060400160405280600181526020017f30000000000000000000000000000000000000000000000000000000000000008152509050611489565b600082905060005b6000821461135b57808061134490612637565b915050600a8261135491906124b9565b9150611331565b60008167ffffffffffffffff81111561139d577f4e487b7100000000000000000000000000000000000000000000000000000000600052604160045260246000fd5b6040519080825280601f01601f1916602001820160405280156113cf5781602001600182028036833780820191505090505b5090505b60008514611482576001826113e891906124ea565b9150600a856113f79190612680565b60306114039190612463565b60f81b81838151811061143f577f4e487b7100000000000000000000000000000000000000000000000000000000600052603260045260246000fd5b60200101907effffffffffffffffffffffffffffffffffffffffffffffffffffffffffffff1916908160001a905350600a8561147b91906124b9565b94506113d3565b8093505050505b919050565b6114a88282604051806020016040528060008152506116c1565b5050565b6114b582610c8f565b6114f4576040517f08c379a00000000000000000000000000000000000000000000000000000000081526004016114eb906122a9565b60405180910390fd5b8060066000848152602001908152602001600020908051906020019061151b929190611919565b505050565b505050565b505050565b600061154b8473ffffffffffffffffffffffffffffffffffffffff1661171c565b156116b4578373ffffffffffffffffffffffffffffffffffffffff1663150b7a02611574610cfb565b8786866040518563ffffffff1660e01b81526004016115969493929190612100565b602060405180830381600087803b1580156115b057600080fd5b505af19250505080156115e157506040513d601f19601f820116820180604052508101906115de9190611cc5565b60015b611664573d8060008114611611576040519150601f19603f3d011682016040523d82523d6000602084013e611616565b606091505b5060008151141561165c576040517f08c379a000000000000000000000000000000000000000000000000000000000815260040161165390612189565b60405180910390fd5b805181602001fd5b63150b7a0260e01b7bffffffffffffffffffffffffffffffffffffffffffffffffffffffff1916817bffffffffffffffffffffffffffffffffffffffffffffffffffffffff1916149150506116b9565b600190505b949350505050565b6116cb838361173f565b6116d8600084848461152a565b611717576040517f08c379a000000000000000000000000000000000000000000000000000000000815260040161170e90612189565b60405180910390fd5b505050565b6000808273ffffffffffffffffffffffffffffffffffffffff163b119050919050565b600073ffffffffffffffffffffffffffffffffffffffff168273ffffffffffffffffffffffffffffffffffffffff1614156117af576040517f08c379a00000000000000000000000000000000000000000000000000000000081526004016117a6906122c9565b60405180910390fd5b6117b881610c8f565b156117f8576040517f08c379a00000000000000000000000000000000000000000000000000000000081526004016117ef906121c9565b60405180910390fd5b61180460008383611520565b6001600360008473ffffffffffffffffffffffffffffffffffffffff1673ffffffffffffffffffffffffffffffffffffffff16815260200190815260200160002060008282546118549190612463565b92505081905550816002600083815260200190815260200160002060006101000a81548173ffffffffffffffffffffffffffffffffffffffff021916908373ffffffffffffffffffffffffffffffffffffffff160217905550808273ffffffffffffffffffffffffffffffffffffffff16600073ffffffffffffffffffffffffffffffffffffffff167fddf252ad1be2c89b69c2b068fc378daa952ba7f163c4a11628f55a4df523b3ef60405160405180910390a461191560008383611525565b5050565b828054611925906125d4565b90600052602060002090601f016020900481019282611947576000855561198e565b82601f1061196057805160ff191683800117855561198e565b8280016001018555821561198e579182015b8281111561198d578251825591602001919060010190611972565b5b50905061199b919061199f565b5090565b5b808211156119b85760008160009055506001016119a0565b5090565b60006119cf6119ca846123a9565b612384565b9050828152602081018484840111156119e757600080fd5b6119f2848285612592565b509392505050565b6000611a0d611a08846123da565b612384565b905082815260208101848484011115611a2557600080fd5b611a30848285612592565b509392505050565b600081359050611a4781612bad565b92915050565b600081359050611a5c81612bc4565b92915050565b600081359050611a7181612bdb565b92915050565b600081519050611a8681612bdb565b92915050565b600082601f830112611a9d57600080fd5b8135611aad8482602086016119bc565b91505092915050565b600082601f830112611ac757600080fd5b8135611ad78482602086016119fa565b91505092915050565b600081359050611aef81612bf2565b92915050565b600060208284031215611b0757600080fd5b6000611b1584828501611a38565b91505092915050565b60008060408385031215611b3157600080fd5b6000611b3f85828601611a38565b9250506020611b5085828601611a38565b9150509250929050565b600080600060608486031215611b6f57600080fd5b6000611b7d86828701611a38565b9350506020611b8e86828701611a38565b9250506040611b9f86828701611ae0565b9150509250925092565b60008060008060808587031215611bbf57600080fd5b6000611bcd87828801611a38565b9450506020611bde87828801611a38565b9350506040611bef87828801611ae0565b925050606085013567ffffffffffffffff811115611c0c57600080fd5b611c1887828801611a8c565b91505092959194509250565b60008060408385031215611c3757600080fd5b6000611c4585828601611a38565b9250506020611c5685828601611a4d565b9150509250929050565b60008060408385031215611c7357600080fd5b6000611c8185828601611a38565b9250506020611c9285828601611ae0565b9150509250929050565b600060208284031215611cae57600080fd5b6000611cbc84828501611a62565b91505092915050565b600060208284031215611cd757600080fd5b6000611ce584828501611a77565b91505092915050565b600060208284031215611d0057600080fd5b600082013567ffffffffffffffff811115611d1a57600080fd5b611d2684828501611ab6565b91505092915050565b600060208284031215611d4157600080fd5b6000611d4f84828501611ae0565b91505092915050565b611d618161251e565b82525050565b611d7081612530565b82525050565b6000611d8182612420565b611d8b8185612436565b9350611d9b8185602086016125a1565b611da48161276d565b840191505092915050565b6000611dba8261242b565b611dc48185612447565b9350611dd48185602086016125a1565b611ddd8161276d565b840191505092915050565b6000611df38261242b565b611dfd8185612458565b9350611e0d8185602086016125a1565b80840191505092915050565b60008154611e26816125d4565b611e308186612458565b94506001821660008114611e4b5760018114611e5c57611e8f565b60ff19831686528186019350611e8f565b611e658561240b565b60005b83811015611e8757815481890152600182019150602081019050611e68565b838801955050505b50505092915050565b6000611ea5603283612447565b9150611eb08261277e565b604082019050919050565b6000611ec8602583612447565b9150611ed3826127cd565b604082019050919050565b6000611eeb601c83612447565b9150611ef68261281c565b602082019050919050565b6000611f0e602483612447565b9150611f1982612845565b604082019050919050565b6000611f31601983612447565b9150611f3c82612894565b602082019050919050565b6000611f54602c83612447565b9150611f5f826128bd565b604082019050919050565b6000611f77603883612447565b9150611f828261290c565b604082019050919050565b6000611f9a602a83612447565b9150611fa58261295b565b604082019050919050565b6000611fbd602983612447565b9150611fc8826129aa565b604082019050919050565b6000611fe0602e83612447565b9150611feb826129f9565b604082019050919050565b6000612003602083612447565b915061200e82612a48565b602082019050919050565b6000612026602c83612447565b915061203182612a71565b604082019050919050565b6000612049602f83612447565b915061205482612ac0565b604082019050919050565b600061206c602183612447565b915061207782612b0f565b604082019050919050565b600061208f603183612447565b915061209a82612b5e565b604082019050919050565b6120ae81612588565b82525050565b60006120c08286611de8565b91506120cc8285611de8565b91506120d88284611e19565b9150819050949350505050565b60006020820190506120fa6000830184611d58565b92915050565b60006080820190506121156000830187611d58565b6121226020830186611d58565b61212f60408301856120a5565b81810360608301526121418184611d76565b905095945050505050565b60006020820190506121616000830184611d67565b92915050565b600060208201905081810360008301526121818184611daf565b905092915050565b600060208201905081810360008301526121a281611e98565b9050919050565b600060208201905081810360008301526121c281611ebb565b9050919050565b600060208201905081810360008301526121e281611ede565b9050919050565b6000602082019050818103600083015261220281611f01565b9050919050565b6000602082019050818103600083015261222281611f24565b9050919050565b6000602082019050818103600083015261224281611f47565b9050919050565b6000602082019050818103600083015261226281611f6a565b9050919050565b6000602082019050818103600083015261228281611f8d565b9050919050565b600060208201905081810360008301526122a281611fb0565b9050919050565b600060208201905081810360008301526122c281611fd3565b9050919050565b600060208201905081810360008301526122e281611ff6565b9050919050565b6000602082019050818103600083015261230281612019565b9050919050565b600060208201905081810360008301526123228161203c565b9050919050565b600060208201905081810360008301526123428161205f565b9050919050565b6000602082019050818103600083015261236281612082565b9050919050565b600060208201905061237e60008301846120a5565b92915050565b600061238e61239f565b905061239a8282612606565b919050565b6000604051905090565b600067ffffffffffffffff8211156123c4576123c361273e565b5b6123cd8261276d565b9050602081019050919050565b600067ffffffffffffffff8211156123f5576123f461273e565b5b6123fe8261276d565b9050602081019050919050565b60008190508160005260206000209050919050565b600081519050919050565b600081519050919050565b600082825260208201905092915050565b600082825260208201905092915050565b600081905092915050565b600061246e82612588565b915061247983612588565b9250827fffffffffffffffffffffffffffffffffffffffffffffffffffffffffffffffff038211156124ae576124ad6126b1565b5b828201905092915050565b60006124c482612588565b91506124cf83612588565b9250826124df576124de6126e0565b5b828204905092915050565b60006124f582612588565b915061250083612588565b925082821015612513576125126126b1565b5b828203905092915050565b600061252982612568565b9050919050565b60008115159050919050565b60007fffffffff0000000000000000000000000000000000000000000000000000000082169050919050565b600073ffffffffffffffffffffffffffffffffffffffff82169050919050565b6000819050919050565b82818337600083830152505050565b60005b838110156125bf5780820151818401526020810190506125a4565b838111156125ce576000848401525b50505050565b600060028204905060018216806125ec57607f821691505b60208210811415612600576125ff61270f565b5b50919050565b61260f8261276d565b810181811067ffffffffffffffff8211171561262e5761262d61273e565b5b80604052505050565b600061264282612588565b91507fffffffffffffffffffffffffffffffffffffffffffffffffffffffffffffffff821415612675576126746126b1565b5b600182019050919050565b600061268b82612588565b915061269683612588565b9250826126a6576126a56126e0565b5b828206905092915050565b7f4e487b7100000000000000000000000000000000000000000000000000000000600052601160045260246000fd5b7f4e487b7100000000000000000000000000000000000000000000000000000000600052601260045260246000fd5b7f4e487b7100000000000000000000000000000000000000000000000000000000600052602260045260246000fd5b7f4e487b7100000000000000000000000000000000000000000000000000000000600052604160045260246000fd5b6000601f19601f8301169050919050565b7f4552433732313a207472616e7366657220746f206e6f6e20455243373231526560008201527f63656976657220696d706c656d656e7465720000000000000000000000000000602082015250565b7f4552433732313a207472616e736665722066726f6d20696e636f72726563742060008201527f6f776e6572000000000000000000000000000000000000000000000000000000602082015250565b7f4552433732313a20746f6b656e20616c7265616479206d696e74656400000000600082015250565b7f4552433732313a207472616e7366657220746f20746865207a65726f2061646460008201527f7265737300000000000000000000000000000000000000000000000000000000602082015250565b7f4552433732313a20617070726f766520746f2063616c6c657200000000000000600082015250565b7f4552433732313a206f70657261746f7220717565727920666f72206e6f6e657860008201527f697374656e7420746f6b656e0000000000000000000000000000000000000000602082015250565b7f4552433732313a20617070726f76652063616c6c6572206973206e6f74206f7760008201527f6e6572206e6f7220617070726f76656420666f7220616c6c0000000000000000602082015250565b7f4552433732313a2062616c616e636520717565727920666f7220746865207a6560008201527f726f206164647265737300000000000000000000000000000000000000000000602082015250565b7f4552433732313a206f776e657220717565727920666f72206e6f6e657869737460008201527f656e7420746f6b656e0000000000000000000000000000000000000000000000602082015250565b7f45524337323155524953746f726167653a2055524920736574206f66206e6f6e60008201527f6578697374656e7420746f6b656e000000000000000000000000000000000000602082015250565b7f4552433732313a206d696e7420746f20746865207a65726f2061646472657373600082015250565b7f4552433732313a20617070726f76656420717565727920666f72206e6f6e657860008201527f697374656e7420746f6b656e0000000000000000000000000000000000000000602082015250565b7f4552433732314d657461646174613a2055524920717565727920666f72206e6f60008201527f6e6578697374656e7420746f6b656e0000000000000000000000000000000000602082015250565b7f4552433732313a20617070726f76616c20746f2063757272656e74206f776e6560008201527f7200000000000000000000000000000000000000000000000000000000000000602082015250565b7f4552433732313a207472616e736665722063616c6c6572206973206e6f74206f60008201527f776e6572206e6f7220617070726f766564000000000000000000000000000000602082015250565b612bb68161251e565b8114612bc157600080fd5b50565b612bcd81612530565b8114612bd857600080fd5b50565b612be48161253c565b8114612bef57600080fd5b50565b612bfb81612588565b8114612c0657600080fd5b5056fea2646970667358221220549639a144fb4afd61d3732a7d323a83a624df0c8d422e85e6ee8e240872d75864736f6c63430008040033",
  "linkReferences": {},
  "deployedLinkReferences": {}
}